{
  "_format": "hh-sol-artifact-1",
  "contractName": "LiquidityPool",
  "sourceName": "contracts/LiquidityPool.sol",
  "abi": [
    {
      "inputs": [
        {
          "internalType": "address",
          "name": "_usdc",
          "type": "address"
        },
        {
          "internalType": "address",
          "name": "_egg",
          "type": "address"
        },
        {
          "internalType": "address",
          "name": "developer",
          "type": "address"
        },
        {
          "internalType": "address",
          "name": "farmer",
          "type": "address"
        },
        {
          "internalType": "address",
          "name": "investor",
          "type": "address"
        },
        {
          "internalType": "address",
          "name": "vendor",
          "type": "address"
        }
      ],
      "stateMutability": "nonpayable",
      "type": "constructor"
    },
    {
      "inputs": [],
      "name": "AccessControlBadConfirmation",
      "type": "error"
    },
    {
      "inputs": [
        {
          "internalType": "address",
          "name": "account",
          "type": "address"
        },
        {
          "internalType": "bytes32",
          "name": "neededRole",
          "type": "bytes32"
        }
      ],
      "name": "AccessControlUnauthorizedAccount",
      "type": "error"
    },
    {
      "anonymous": false,
      "inputs": [
        {
          "indexed": true,
          "internalType": "bytes32",
          "name": "role",
          "type": "bytes32"
        },
        {
          "indexed": true,
          "internalType": "bytes32",
          "name": "previousAdminRole",
          "type": "bytes32"
        },
        {
          "indexed": true,
          "internalType": "bytes32",
          "name": "newAdminRole",
          "type": "bytes32"
        }
      ],
      "name": "RoleAdminChanged",
      "type": "event"
    },
    {
      "anonymous": false,
      "inputs": [
        {
          "indexed": true,
          "internalType": "bytes32",
          "name": "role",
          "type": "bytes32"
        },
        {
          "indexed": true,
          "internalType": "address",
          "name": "account",
          "type": "address"
        },
        {
          "indexed": true,
          "internalType": "address",
          "name": "sender",
          "type": "address"
        }
      ],
      "name": "RoleGranted",
      "type": "event"
    },
    {
      "anonymous": false,
      "inputs": [
        {
          "indexed": true,
          "internalType": "bytes32",
          "name": "role",
          "type": "bytes32"
        },
        {
          "indexed": true,
          "internalType": "address",
          "name": "account",
          "type": "address"
        },
        {
          "indexed": true,
          "internalType": "address",
          "name": "sender",
          "type": "address"
        }
      ],
      "name": "RoleRevoked",
      "type": "event"
    },
    {
      "inputs": [],
      "name": "DEFAULT_ADMIN_ROLE",
      "outputs": [
        {
          "internalType": "bytes32",
          "name": "",
          "type": "bytes32"
        }
      ],
      "stateMutability": "view",
      "type": "function"
    },
    {
      "inputs": [],
      "name": "DEVELOPER_ROLE",
      "outputs": [
        {
          "internalType": "bytes32",
          "name": "",
          "type": "bytes32"
        }
      ],
      "stateMutability": "view",
      "type": "function"
    },
    {
      "inputs": [],
      "name": "FARMER_ROLE",
      "outputs": [
        {
          "internalType": "bytes32",
          "name": "",
          "type": "bytes32"
        }
      ],
      "stateMutability": "view",
      "type": "function"
    },
    {
      "inputs": [],
      "name": "INVESTOR_ROLE",
      "outputs": [
        {
          "internalType": "bytes32",
          "name": "",
          "type": "bytes32"
        }
      ],
      "stateMutability": "view",
      "type": "function"
    },
    {
      "inputs": [],
      "name": "VENDOR_ROLE",
      "outputs": [
        {
          "internalType": "bytes32",
          "name": "",
          "type": "bytes32"
        }
      ],
      "stateMutability": "view",
      "type": "function"
    },
    {
      "inputs": [
        {
          "internalType": "uint256",
          "name": "amount",
          "type": "uint256"
        }
      ],
      "name": "depositUSDC",
      "outputs": [],
      "stateMutability": "nonpayable",
      "type": "function"
    },
    {
      "inputs": [],
      "name": "eggToken",
      "outputs": [
        {
          "internalType": "contract EggCoin",
          "name": "",
          "type": "address"
        }
      ],
      "stateMutability": "view",
      "type": "function"
    },
    {
      "inputs": [
        {
          "internalType": "bytes32",
          "name": "role",
          "type": "bytes32"
        }
      ],
      "name": "getRoleAdmin",
      "outputs": [
        {
          "internalType": "bytes32",
          "name": "",
          "type": "bytes32"
        }
      ],
      "stateMutability": "view",
      "type": "function"
    },
    {
      "inputs": [
        {
          "internalType": "bytes32",
          "name": "role",
          "type": "bytes32"
        },
        {
          "internalType": "address",
          "name": "account",
          "type": "address"
        }
      ],
      "name": "grantRole",
      "outputs": [],
      "stateMutability": "nonpayable",
      "type": "function"
    },
    {
      "inputs": [
        {
          "internalType": "bytes32",
          "name": "role",
          "type": "bytes32"
        },
        {
          "internalType": "address",
          "name": "account",
          "type": "address"
        }
      ],
      "name": "hasRole",
      "outputs": [
        {
          "internalType": "bool",
          "name": "",
          "type": "bool"
        }
      ],
      "stateMutability": "view",
      "type": "function"
    },
    {
      "inputs": [
        {
          "internalType": "address",
          "name": "",
          "type": "address"
        }
      ],
      "name": "investors",
      "outputs": [
        {
          "internalType": "uint256",
          "name": "usdcDeposited",
          "type": "uint256"
        },
        {
          "internalType": "uint256",
          "name": "eggMinted",
          "type": "uint256"
        },
        {
          "internalType": "uint256",
          "name": "depositTimestamp",
          "type": "uint256"
        }
      ],
      "stateMutability": "view",
      "type": "function"
    },
    {
      "inputs": [],
      "name": "loanManager",
      "outputs": [
        {
          "internalType": "address",
          "name": "",
          "type": "address"
        }
      ],
      "stateMutability": "view",
      "type": "function"
    },
    {
      "inputs": [
        {
          "internalType": "bytes32",
          "name": "role",
          "type": "bytes32"
        },
        {
          "internalType": "address",
          "name": "callerConfirmation",
          "type": "address"
        }
      ],
      "name": "renounceRole",
      "outputs": [],
      "stateMutability": "nonpayable",
      "type": "function"
    },
    {
      "inputs": [
        {
          "internalType": "bytes32",
          "name": "role",
          "type": "bytes32"
        },
        {
          "internalType": "address",
          "name": "account",
          "type": "address"
        }
      ],
      "name": "revokeRole",
      "outputs": [],
      "stateMutability": "nonpayable",
      "type": "function"
    },
    {
      "inputs": [
        {
          "internalType": "address",
          "name": "_egg",
          "type": "address"
        }
      ],
      "name": "setEggToken",
      "outputs": [],
      "stateMutability": "nonpayable",
      "type": "function"
    },
    {
      "inputs": [
        {
          "internalType": "address",
          "name": "_loanManager",
          "type": "address"
        }
      ],
      "name": "setLoanManager",
      "outputs": [],
      "stateMutability": "nonpayable",
      "type": "function"
    },
    {
      "inputs": [
        {
          "internalType": "bytes4",
          "name": "interfaceId",
          "type": "bytes4"
        }
      ],
      "name": "supportsInterface",
      "outputs": [
        {
          "internalType": "bool",
          "name": "",
          "type": "bool"
        }
      ],
      "stateMutability": "view",
      "type": "function"
    },
    {
      "inputs": [],
      "name": "usdcToken",
      "outputs": [
        {
          "internalType": "contract IERC20",
          "name": "",
          "type": "address"
        }
      ],
      "stateMutability": "view",
      "type": "function"
    },
    {
      "inputs": [
        {
          "internalType": "uint256",
          "name": "amount",
          "type": "uint256"
        }
      ],
      "name": "withdrawUSDC",
      "outputs": [],
      "stateMutability": "nonpayable",
      "type": "function"
    }
  ],
  "bytecode": "0x60806040523480156200001157600080fd5b5060405162001c4038038062001c40833981810160405281019062000037919062000386565b85600160006101000a81548173ffffffffffffffffffffffffffffffffffffffff021916908373ffffffffffffffffffffffffffffffffffffffff16021790555084600260006101000a81548173ffffffffffffffffffffffffffffffffffffffff021916908373ffffffffffffffffffffffffffffffffffffffff160217905550620000ce6000801b85620001a760201b60201c565b50620001017f4504b9dfd7400a1522f49a8b4a100552da9236849581fd59b7363eb48c6a474c85620001a760201b60201c565b50620001347f7c6181838a71a779e445600d4c6ecbe16bacf2b3c5bda69c29fada66d1b645d184620001a760201b60201c565b50620001677fb165298935924f540e4181c03493a5d686c54a0aaeb3f6216de85b7ffbba773883620001a760201b60201c565b506200019a7fb66d507c1e3c1bc237b923feddf01f16873f6a23c218ec08d1c8983da3c5630982620001a760201b60201c565b5050505050505062000422565b6000620001bb8383620002aa60201b60201c565b6200029f57600160008085815260200190815260200160002060000160008473ffffffffffffffffffffffffffffffffffffffff1673ffffffffffffffffffffffffffffffffffffffff16815260200190815260200160002060006101000a81548160ff0219169083151502179055506200023b6200031460201b60201c565b73ffffffffffffffffffffffffffffffffffffffff168273ffffffffffffffffffffffffffffffffffffffff16847f2f8788117e7eff1d82e926ec794901d17c78024a50270940304540a733656f0d60405160405180910390a460019050620002a4565b600090505b92915050565b600080600084815260200190815260200160002060000160008373ffffffffffffffffffffffffffffffffffffffff1673ffffffffffffffffffffffffffffffffffffffff16815260200190815260200160002060009054906101000a900460ff16905092915050565b600033905090565b600080fd5b600073ffffffffffffffffffffffffffffffffffffffff82169050919050565b60006200034e8262000321565b9050919050565b620003608162000341565b81146200036c57600080fd5b50565b600081519050620003808162000355565b92915050565b60008060008060008060c08789031215620003a657620003a56200031c565b5b6000620003b689828a016200036f565b9650506020620003c989828a016200036f565b9550506040620003dc89828a016200036f565b9450506060620003ef89828a016200036f565b93505060806200040289828a016200036f565b92505060a06200041589828a016200036f565b9150509295509295509295565b61180e80620004326000396000f3fe608060405234801561001057600080fd5b50600436106101215760003560e01c806391d14854116100ad578063b3ccbcfe11610071578063b3ccbcfe1461030c578063d547741f1461032a578063db81f99b14610346578063f394397014610362578063f688bcfb1461038057610121565b806391d1485414610266578063926a694d14610296578063957e8ce8146102b457806399119d22146102d0578063a217fddf146102ee57610121565b806336568abe116100f457806336568abe146101c05780635772ae70146101dc5780636f7bc9be146101f857806376082a5e1461022a5780639103a0e01461024857610121565b806301ffc9a71461012657806311eac85514610156578063248a9ca3146101745780632f2ff15d146101a4575b600080fd5b610140600480360381019061013b919061115a565b61039c565b60405161014d91906111a2565b60405180910390f35b61015e610416565b60405161016b919061123c565b60405180910390f35b61018e6004803603810190610189919061128d565b61043c565b60405161019b91906112c9565b60405180910390f35b6101be60048036038101906101b99190611322565b61045b565b005b6101da60048036038101906101d59190611322565b61047d565b005b6101f660048036038101906101f19190611362565b6104f8565b005b610212600480360381019061020d9190611362565b610685565b604051610221939291906113a8565b60405180910390f35b6102326106af565b60405161023f91906112c9565b60405180910390f35b6102506106d3565b60405161025d91906112c9565b60405180910390f35b610280600480360381019061027b9190611322565b6106f7565b60405161028d91906111a2565b60405180910390f35b61029e610761565b6040516102ab91906112c9565b60405180910390f35b6102ce60048036038101906102c99190611362565b610785565b005b6102d86107f4565b6040516102e59190611400565b60405180910390f35b6102f661081a565b60405161030391906112c9565b60405180910390f35b610314610821565b604051610321919061142a565b60405180910390f35b610344600480360381019061033f9190611322565b610847565b005b610360600480360381019061035b9190611471565b610869565b005b61036a610b54565b60405161037791906112c9565b60405180910390f35b61039a60048036038101906103959190611471565b610b78565b005b60007f7965db0b000000000000000000000000000000000000000000000000000000007bffffffffffffffffffffffffffffffffffffffffffffffffffffffff1916827bffffffffffffffffffffffffffffffffffffffffffffffffffffffff1916148061040f575061040e82610e43565b5b9050919050565b600160009054906101000a900473ffffffffffffffffffffffffffffffffffffffff1681565b6000806000838152602001908152602001600020600101549050919050565b6104648261043c565b61046d81610ead565b6104778383610ec1565b50505050565b610485610fb2565b73ffffffffffffffffffffffffffffffffffffffff168173ffffffffffffffffffffffffffffffffffffffff16146104e9576040517f6697b23200000000000000000000000000000000000000000000000000000000815260040160405180910390fd5b6104f38282610fba565b505050565b7f4504b9dfd7400a1522f49a8b4a100552da9236849581fd59b7363eb48c6a474c61052281610ead565b600073ffffffffffffffffffffffffffffffffffffffff168273ffffffffffffffffffffffffffffffffffffffff1603610591576040517f08c379a0000000000000000000000000000000000000000000000000000000008152600401610588906114fb565b60405180910390fd5b81600360006101000a81548173ffffffffffffffffffffffffffffffffffffffff021916908373ffffffffffffffffffffffffffffffffffffffff160217905550600260009054906101000a900473ffffffffffffffffffffffffffffffffffffffff1673ffffffffffffffffffffffffffffffffffffffff1663f5be7bc8837fffffffffffffffffffffffffffffffffffffffffffffffffffffffffffffffff6040518363ffffffff1660e01b815260040161064f92919061151b565b600060405180830381600087803b15801561066957600080fd5b505af115801561067d573d6000803e3d6000fd5b505050505050565b60046020528060005260406000206000915090508060000154908060010154908060020154905083565b7fb165298935924f540e4181c03493a5d686c54a0aaeb3f6216de85b7ffbba773881565b7f4504b9dfd7400a1522f49a8b4a100552da9236849581fd59b7363eb48c6a474c81565b600080600084815260200190815260200160002060000160008373ffffffffffffffffffffffffffffffffffffffff1673ffffffffffffffffffffffffffffffffffffffff16815260200190815260200160002060009054906101000a900460ff16905092915050565b7fb66d507c1e3c1bc237b923feddf01f16873f6a23c218ec08d1c8983da3c5630981565b7f4504b9dfd7400a1522f49a8b4a100552da9236849581fd59b7363eb48c6a474c6107af81610ead565b81600260006101000a81548173ffffffffffffffffffffffffffffffffffffffff021916908373ffffffffffffffffffffffffffffffffffffffff1602179055505050565b600260009054906101000a900473ffffffffffffffffffffffffffffffffffffffff1681565b6000801b81565b600360009054906101000a900473ffffffffffffffffffffffffffffffffffffffff1681565b6108508261043c565b61085981610ead565b6108638383610fba565b50505050565b600081116108ac576040517f08c379a00000000000000000000000000000000000000000000000000000000081526004016108a390611590565b60405180910390fd5b80600460003373ffffffffffffffffffffffffffffffffffffffff1673ffffffffffffffffffffffffffffffffffffffff168152602001908152602001600020600101541015610931576040517f08c379a0000000000000000000000000000000000000000000000000000000008152600401610928906115fc565b60405180910390fd5b600260009054906101000a900473ffffffffffffffffffffffffffffffffffffffff1673ffffffffffffffffffffffffffffffffffffffff16639dc29fac33836040518363ffffffff1660e01b815260040161098e92919061151b565b600060405180830381600087803b1580156109a857600080fd5b505af11580156109bc573d6000803e3d6000fd5b50505050600160009054906101000a900473ffffffffffffffffffffffffffffffffffffffff1673ffffffffffffffffffffffffffffffffffffffff1663a9059cbb33836040518363ffffffff1660e01b8152600401610a1d92919061151b565b6020604051808303816000875af1158015610a3c573d6000803e3d6000fd5b505050506040513d601f19601f82011682018060405250810190610a609190611648565b610a9f576040517f08c379a0000000000000000000000000000000000000000000000000000000008152600401610a96906116c1565b60405180910390fd5b80600460003373ffffffffffffffffffffffffffffffffffffffff1673ffffffffffffffffffffffffffffffffffffffff1681526020019081526020016000206000016000828254610af19190611710565b9250508190555080600460003373ffffffffffffffffffffffffffffffffffffffff1673ffffffffffffffffffffffffffffffffffffffff1681526020019081526020016000206001016000828254610b4a9190611710565b9250508190555050565b7f7c6181838a71a779e445600d4c6ecbe16bacf2b3c5bda69c29fada66d1b645d181565b60008111610bbb576040517f08c379a0000000000000000000000000000000000000000000000000000000008152600401610bb290611590565b60405180910390fd5b600160009054906101000a900473ffffffffffffffffffffffffffffffffffffffff1673ffffffffffffffffffffffffffffffffffffffff166323b872dd3330846040518463ffffffff1660e01b8152600401610c1a93929190611744565b6020604051808303816000875af1158015610c39573d6000803e3d6000fd5b505050506040513d601f19601f82011682018060405250810190610c5d9190611648565b610c9c576040517f08c379a0000000000000000000000000000000000000000000000000000000008152600401610c93906116c1565b60405180910390fd5b600260009054906101000a900473ffffffffffffffffffffffffffffffffffffffff1673ffffffffffffffffffffffffffffffffffffffff166340c10f1933836040518363ffffffff1660e01b8152600401610cf992919061151b565b600060405180830381600087803b158015610d1357600080fd5b505af1158015610d27573d6000803e3d6000fd5b50505050604051806060016040528082600460003373ffffffffffffffffffffffffffffffffffffffff1673ffffffffffffffffffffffffffffffffffffffff16815260200190815260200160002060000154610d84919061177b565b815260200182600460003373ffffffffffffffffffffffffffffffffffffffff1673ffffffffffffffffffffffffffffffffffffffff16815260200190815260200160002060010154610dd7919061177b565b815260200142815250600460003373ffffffffffffffffffffffffffffffffffffffff1673ffffffffffffffffffffffffffffffffffffffff16815260200190815260200160002060008201518160000155602082015181600101556040820151816002015590505050565b60007f01ffc9a7000000000000000000000000000000000000000000000000000000007bffffffffffffffffffffffffffffffffffffffffffffffffffffffff1916827bffffffffffffffffffffffffffffffffffffffffffffffffffffffff1916149050919050565b610ebe81610eb9610fb2565b6110ac565b50565b6000610ecd83836106f7565b610fa757600160008085815260200190815260200160002060000160008473ffffffffffffffffffffffffffffffffffffffff1673ffffffffffffffffffffffffffffffffffffffff16815260200190815260200160002060006101000a81548160ff021916908315150217905550610f44610fb2565b73ffffffffffffffffffffffffffffffffffffffff168273ffffffffffffffffffffffffffffffffffffffff16847f2f8788117e7eff1d82e926ec794901d17c78024a50270940304540a733656f0d60405160405180910390a460019050610fac565b600090505b92915050565b600033905090565b6000610fc683836106f7565b156110a157600080600085815260200190815260200160002060000160008473ffffffffffffffffffffffffffffffffffffffff1673ffffffffffffffffffffffffffffffffffffffff16815260200190815260200160002060006101000a81548160ff02191690831515021790555061103e610fb2565b73ffffffffffffffffffffffffffffffffffffffff168273ffffffffffffffffffffffffffffffffffffffff16847ff6391f5c32d9c69d2a47ea670b442974b53935d1edc7fd64eb21e047a839171b60405160405180910390a4600190506110a6565b600090505b92915050565b6110b682826106f7565b6110f95780826040517fe2517d3f0000000000000000000000000000000000000000000000000000000081526004016110f09291906117af565b60405180910390fd5b5050565b600080fd5b60007fffffffff0000000000000000000000000000000000000000000000000000000082169050919050565b61113781611102565b811461114257600080fd5b50565b6000813590506111548161112e565b92915050565b6000602082840312156111705761116f6110fd565b5b600061117e84828501611145565b91505092915050565b60008115159050919050565b61119c81611187565b82525050565b60006020820190506111b76000830184611193565b92915050565b600073ffffffffffffffffffffffffffffffffffffffff82169050919050565b6000819050919050565b60006112026111fd6111f8846111bd565b6111dd565b6111bd565b9050919050565b6000611214826111e7565b9050919050565b600061122682611209565b9050919050565b6112368161121b565b82525050565b6000602082019050611251600083018461122d565b92915050565b6000819050919050565b61126a81611257565b811461127557600080fd5b50565b60008135905061128781611261565b92915050565b6000602082840312156112a3576112a26110fd565b5b60006112b184828501611278565b91505092915050565b6112c381611257565b82525050565b60006020820190506112de60008301846112ba565b92915050565b60006112ef826111bd565b9050919050565b6112ff816112e4565b811461130a57600080fd5b50565b60008135905061131c816112f6565b92915050565b60008060408385031215611339576113386110fd565b5b600061134785828601611278565b92505060206113588582860161130d565b9150509250929050565b600060208284031215611378576113776110fd565b5b60006113868482850161130d565b91505092915050565b6000819050919050565b6113a28161138f565b82525050565b60006060820190506113bd6000830186611399565b6113ca6020830185611399565b6113d76040830184611399565b949350505050565b60006113ea82611209565b9050919050565b6113fa816113df565b82525050565b600060208201905061141560008301846113f1565b92915050565b611424816112e4565b82525050565b600060208201905061143f600083018461141b565b92915050565b61144e8161138f565b811461145957600080fd5b50565b60008135905061146b81611445565b92915050565b600060208284031215611487576114866110fd565b5b60006114958482850161145c565b91505092915050565b600082825260208201905092915050565b7f496e76616c6964206c6f616e206d616e61676572206164647265737300000000600082015250565b60006114e5601c8361149e565b91506114f0826114af565b602082019050919050565b60006020820190508181036000830152611514816114d8565b9050919050565b6000604082019050611530600083018561141b565b61153d6020830184611399565b9392505050565b7f416d6f756e74206d7573742062652067726561746572207468616e2030000000600082015250565b600061157a601d8361149e565b915061158582611544565b602082019050919050565b600060208201905081810360008301526115a98161156d565b9050919050565b7f496e73756666696369656e7420456767436f696e2062616c616e636500000000600082015250565b60006115e6601c8361149e565b91506115f1826115b0565b602082019050919050565b60006020820190508181036000830152611615816115d9565b9050919050565b61162581611187565b811461163057600080fd5b50565b6000815190506116428161161c565b92915050565b60006020828403121561165e5761165d6110fd565b5b600061166c84828501611633565b91505092915050565b7f55534443207472616e73666572206661696c6564000000000000000000000000600082015250565b60006116ab60148361149e565b91506116b682611675565b602082019050919050565b600060208201905081810360008301526116da8161169e565b9050919050565b7f4e487b7100000000000000000000000000000000000000000000000000000000600052601160045260246000fd5b600061171b8261138f565b91506117268361138f565b925082820390508181111561173e5761173d6116e1565b5b92915050565b6000606082019050611759600083018661141b565b611766602083018561141b565b6117736040830184611399565b949350505050565b60006117868261138f565b91506117918361138f565b92508282019050808211156117a9576117a86116e1565b5b92915050565b60006040820190506117c4600083018561141b565b6117d160208301846112ba565b939250505056fea264697066735822122076374913ea4463a7ffeda1a65608506aabc0508f530d0bf8ccf950fb261689dd64736f6c63430008140033",
  "linkReferences": {},
  "deployedLinkReferences": {}
}