{
  "_format": "hh-sol-artifact-1",
  "contractName": "EggCoin",
  "sourceName": "contracts/EggCoin.sol",
  "abi": [
    {
      "inputs": [],
      "stateMutability": "nonpayable",
      "type": "constructor"
    },
    {
      "inputs": [],
      "name": "AccessControlBadConfirmation",
      "type": "error"
    },
    {
      "inputs": [
        {
          "internalType": "address",
          "name": "account",
          "type": "address"
        },
        {
          "internalType": "bytes32",
          "name": "neededRole",
          "type": "bytes32"
        }
      ],
      "name": "AccessControlUnauthorizedAccount",
      "type": "error"
    },
    {
      "inputs": [],
      "name": "ECDSAInvalidSignature",
      "type": "error"
    },
    {
      "inputs": [
        {
          "internalType": "uint256",
          "name": "length",
          "type": "uint256"
        }
      ],
      "name": "ECDSAInvalidSignatureLength",
      "type": "error"
    },
    {
      "inputs": [
        {
          "internalType": "bytes32",
          "name": "s",
          "type": "bytes32"
        }
      ],
      "name": "ECDSAInvalidSignatureS",
      "type": "error"
    },
    {
      "inputs": [
        {
          "internalType": "address",
          "name": "spender",
          "type": "address"
        },
        {
          "internalType": "uint256",
          "name": "allowance",
          "type": "uint256"
        },
        {
          "internalType": "uint256",
          "name": "needed",
          "type": "uint256"
        }
      ],
      "name": "ERC20InsufficientAllowance",
      "type": "error"
    },
    {
      "inputs": [
        {
          "internalType": "address",
          "name": "sender",
          "type": "address"
        },
        {
          "internalType": "uint256",
          "name": "balance",
          "type": "uint256"
        },
        {
          "internalType": "uint256",
          "name": "needed",
          "type": "uint256"
        }
      ],
      "name": "ERC20InsufficientBalance",
      "type": "error"
    },
    {
      "inputs": [
        {
          "internalType": "address",
          "name": "approver",
          "type": "address"
        }
      ],
      "name": "ERC20InvalidApprover",
      "type": "error"
    },
    {
      "inputs": [
        {
          "internalType": "address",
          "name": "receiver",
          "type": "address"
        }
      ],
      "name": "ERC20InvalidReceiver",
      "type": "error"
    },
    {
      "inputs": [
        {
          "internalType": "address",
          "name": "sender",
          "type": "address"
        }
      ],
      "name": "ERC20InvalidSender",
      "type": "error"
    },
    {
      "inputs": [
        {
          "internalType": "address",
          "name": "spender",
          "type": "address"
        }
      ],
      "name": "ERC20InvalidSpender",
      "type": "error"
    },
    {
      "inputs": [
        {
          "internalType": "uint256",
          "name": "deadline",
          "type": "uint256"
        }
      ],
      "name": "ERC2612ExpiredSignature",
      "type": "error"
    },
    {
      "inputs": [
        {
          "internalType": "address",
          "name": "signer",
          "type": "address"
        },
        {
          "internalType": "address",
          "name": "owner",
          "type": "address"
        }
      ],
      "name": "ERC2612InvalidSigner",
      "type": "error"
    },
    {
      "inputs": [
        {
          "internalType": "address",
          "name": "account",
          "type": "address"
        },
        {
          "internalType": "uint256",
          "name": "currentNonce",
          "type": "uint256"
        }
      ],
      "name": "InvalidAccountNonce",
      "type": "error"
    },
    {
      "inputs": [],
      "name": "InvalidShortString",
      "type": "error"
    },
    {
      "inputs": [
        {
          "internalType": "string",
          "name": "str",
          "type": "string"
        }
      ],
      "name": "StringTooLong",
      "type": "error"
    },
    {
      "anonymous": false,
      "inputs": [
        {
          "indexed": true,
          "internalType": "address",
          "name": "owner",
          "type": "address"
        },
        {
          "indexed": true,
          "internalType": "address",
          "name": "spender",
          "type": "address"
        },
        {
          "indexed": false,
          "internalType": "uint256",
          "name": "value",
          "type": "uint256"
        }
      ],
      "name": "Approval",
      "type": "event"
    },
    {
      "anonymous": false,
      "inputs": [],
      "name": "EIP712DomainChanged",
      "type": "event"
    },
    {
      "anonymous": false,
      "inputs": [
        {
          "indexed": true,
          "internalType": "bytes32",
          "name": "role",
          "type": "bytes32"
        },
        {
          "indexed": true,
          "internalType": "bytes32",
          "name": "previousAdminRole",
          "type": "bytes32"
        },
        {
          "indexed": true,
          "internalType": "bytes32",
          "name": "newAdminRole",
          "type": "bytes32"
        }
      ],
      "name": "RoleAdminChanged",
      "type": "event"
    },
    {
      "anonymous": false,
      "inputs": [
        {
          "indexed": true,
          "internalType": "bytes32",
          "name": "role",
          "type": "bytes32"
        },
        {
          "indexed": true,
          "internalType": "address",
          "name": "account",
          "type": "address"
        },
        {
          "indexed": true,
          "internalType": "address",
          "name": "sender",
          "type": "address"
        }
      ],
      "name": "RoleGranted",
      "type": "event"
    },
    {
      "anonymous": false,
      "inputs": [
        {
          "indexed": true,
          "internalType": "bytes32",
          "name": "role",
          "type": "bytes32"
        },
        {
          "indexed": true,
          "internalType": "address",
          "name": "account",
          "type": "address"
        },
        {
          "indexed": true,
          "internalType": "address",
          "name": "sender",
          "type": "address"
        }
      ],
      "name": "RoleRevoked",
      "type": "event"
    },
    {
      "anonymous": false,
      "inputs": [
        {
          "indexed": true,
          "internalType": "address",
          "name": "from",
          "type": "address"
        },
        {
          "indexed": true,
          "internalType": "address",
          "name": "to",
          "type": "address"
        },
        {
          "indexed": false,
          "internalType": "uint256",
          "name": "value",
          "type": "uint256"
        }
      ],
      "name": "Transfer",
      "type": "event"
    },
    {
      "inputs": [],
      "name": "ADMIN_ROLE",
      "outputs": [
        {
          "internalType": "bytes32",
          "name": "",
          "type": "bytes32"
        }
      ],
      "stateMutability": "view",
      "type": "function"
    },
    {
      "inputs": [],
      "name": "BURNER_ROLE",
      "outputs": [
        {
          "internalType": "bytes32",
          "name": "",
          "type": "bytes32"
        }
      ],
      "stateMutability": "view",
      "type": "function"
    },
    {
      "inputs": [],
      "name": "DEFAULT_ADMIN_ROLE",
      "outputs": [
        {
          "internalType": "bytes32",
          "name": "",
          "type": "bytes32"
        }
      ],
      "stateMutability": "view",
      "type": "function"
    },
    {
      "inputs": [],
      "name": "DOMAIN_SEPARATOR",
      "outputs": [
        {
          "internalType": "bytes32",
          "name": "",
          "type": "bytes32"
        }
      ],
      "stateMutability": "view",
      "type": "function"
    },
    {
      "inputs": [],
      "name": "MINTER_ROLE",
      "outputs": [
        {
          "internalType": "bytes32",
          "name": "",
          "type": "bytes32"
        }
      ],
      "stateMutability": "view",
      "type": "function"
    },
    {
      "inputs": [
        {
          "internalType": "address",
          "name": "owner",
          "type": "address"
        },
        {
          "internalType": "address",
          "name": "spender",
          "type": "address"
        }
      ],
      "name": "allowance",
      "outputs": [
        {
          "internalType": "uint256",
          "name": "",
          "type": "uint256"
        }
      ],
      "stateMutability": "view",
      "type": "function"
    },
    {
      "inputs": [
        {
          "internalType": "address",
          "name": "spender",
          "type": "address"
        },
        {
          "internalType": "uint256",
          "name": "value",
          "type": "uint256"
        }
      ],
      "name": "approve",
      "outputs": [
        {
          "internalType": "bool",
          "name": "",
          "type": "bool"
        }
      ],
      "stateMutability": "nonpayable",
      "type": "function"
    },
    {
      "inputs": [
        {
          "internalType": "address",
          "name": "spender",
          "type": "address"
        },
        {
          "internalType": "uint256",
          "name": "amount",
          "type": "uint256"
        }
      ],
      "name": "approveForContract",
      "outputs": [],
      "stateMutability": "nonpayable",
      "type": "function"
    },
    {
      "inputs": [
        {
          "internalType": "address",
          "name": "account",
          "type": "address"
        }
      ],
      "name": "balanceOf",
      "outputs": [
        {
          "internalType": "uint256",
          "name": "",
          "type": "uint256"
        }
      ],
      "stateMutability": "view",
      "type": "function"
    },
    {
      "inputs": [
        {
          "internalType": "address",
          "name": "from",
          "type": "address"
        },
        {
          "internalType": "uint256",
          "name": "amount",
          "type": "uint256"
        }
      ],
      "name": "burn",
      "outputs": [],
      "stateMutability": "nonpayable",
      "type": "function"
    },
    {
      "inputs": [],
      "name": "decimals",
      "outputs": [
        {
          "internalType": "uint8",
          "name": "",
          "type": "uint8"
        }
      ],
      "stateMutability": "view",
      "type": "function"
    },
    {
      "inputs": [],
      "name": "eip712Domain",
      "outputs": [
        {
          "internalType": "bytes1",
          "name": "fields",
          "type": "bytes1"
        },
        {
          "internalType": "string",
          "name": "name",
          "type": "string"
        },
        {
          "internalType": "string",
          "name": "version",
          "type": "string"
        },
        {
          "internalType": "uint256",
          "name": "chainId",
          "type": "uint256"
        },
        {
          "internalType": "address",
          "name": "verifyingContract",
          "type": "address"
        },
        {
          "internalType": "bytes32",
          "name": "salt",
          "type": "bytes32"
        },
        {
          "internalType": "uint256[]",
          "name": "extensions",
          "type": "uint256[]"
        }
      ],
      "stateMutability": "view",
      "type": "function"
    },
    {
      "inputs": [
        {
          "internalType": "bytes32",
          "name": "role",
          "type": "bytes32"
        }
      ],
      "name": "getRoleAdmin",
      "outputs": [
        {
          "internalType": "bytes32",
          "name": "",
          "type": "bytes32"
        }
      ],
      "stateMutability": "view",
      "type": "function"
    },
    {
      "inputs": [
        {
          "internalType": "bytes32",
          "name": "role",
          "type": "bytes32"
        },
        {
          "internalType": "address",
          "name": "account",
          "type": "address"
        }
      ],
      "name": "grantRole",
      "outputs": [],
      "stateMutability": "nonpayable",
      "type": "function"
    },
    {
      "inputs": [
        {
          "internalType": "bytes32",
          "name": "role",
          "type": "bytes32"
        },
        {
          "internalType": "address",
          "name": "account",
          "type": "address"
        }
      ],
      "name": "hasRole",
      "outputs": [
        {
          "internalType": "bool",
          "name": "",
          "type": "bool"
        }
      ],
      "stateMutability": "view",
      "type": "function"
    },
    {
      "inputs": [],
      "name": "liquidityPool",
      "outputs": [
        {
          "internalType": "address",
          "name": "",
          "type": "address"
        }
      ],
      "stateMutability": "view",
      "type": "function"
    },
    {
      "inputs": [],
      "name": "loanManager",
      "outputs": [
        {
          "internalType": "address",
          "name": "",
          "type": "address"
        }
      ],
      "stateMutability": "view",
      "type": "function"
    },
    {
      "inputs": [
        {
          "internalType": "address",
          "name": "to",
          "type": "address"
        },
        {
          "internalType": "uint256",
          "name": "amount",
          "type": "uint256"
        }
      ],
      "name": "mint",
      "outputs": [],
      "stateMutability": "nonpayable",
      "type": "function"
    },
    {
      "inputs": [],
      "name": "name",
      "outputs": [
        {
          "internalType": "string",
          "name": "",
          "type": "string"
        }
      ],
      "stateMutability": "view",
      "type": "function"
    },
    {
      "inputs": [
        {
          "internalType": "address",
          "name": "owner",
          "type": "address"
        }
      ],
      "name": "nonces",
      "outputs": [
        {
          "internalType": "uint256",
          "name": "",
          "type": "uint256"
        }
      ],
      "stateMutability": "view",
      "type": "function"
    },
    {
      "inputs": [
        {
          "internalType": "address",
          "name": "owner",
          "type": "address"
        },
        {
          "internalType": "address",
          "name": "spender",
          "type": "address"
        },
        {
          "internalType": "uint256",
          "name": "value",
          "type": "uint256"
        },
        {
          "internalType": "uint256",
          "name": "deadline",
          "type": "uint256"
        },
        {
          "internalType": "uint8",
          "name": "v",
          "type": "uint8"
        },
        {
          "internalType": "bytes32",
          "name": "r",
          "type": "bytes32"
        },
        {
          "internalType": "bytes32",
          "name": "s",
          "type": "bytes32"
        }
      ],
      "name": "permit",
      "outputs": [],
      "stateMutability": "nonpayable",
      "type": "function"
    },
    {
      "inputs": [
        {
          "internalType": "bytes32",
          "name": "role",
          "type": "bytes32"
        },
        {
          "internalType": "address",
          "name": "callerConfirmation",
          "type": "address"
        }
      ],
      "name": "renounceRole",
      "outputs": [],
      "stateMutability": "nonpayable",
      "type": "function"
    },
    {
      "inputs": [
        {
          "internalType": "bytes32",
          "name": "role",
          "type": "bytes32"
        },
        {
          "internalType": "address",
          "name": "account",
          "type": "address"
        }
      ],
      "name": "revokeRole",
      "outputs": [],
      "stateMutability": "nonpayable",
      "type": "function"
    },
    {
      "inputs": [
        {
          "internalType": "address",
          "name": "_liquidityPool",
          "type": "address"
        },
        {
          "internalType": "address",
          "name": "_loanManager",
          "type": "address"
        },
        {
          "internalType": "address",
          "name": "_yieldPool",
          "type": "address"
        }
      ],
      "name": "setProtocolContracts",
      "outputs": [],
      "stateMutability": "nonpayable",
      "type": "function"
    },
    {
      "inputs": [
        {
          "internalType": "bytes4",
          "name": "interfaceId",
          "type": "bytes4"
        }
      ],
      "name": "supportsInterface",
      "outputs": [
        {
          "internalType": "bool",
          "name": "",
          "type": "bool"
        }
      ],
      "stateMutability": "view",
      "type": "function"
    },
    {
      "inputs": [],
      "name": "symbol",
      "outputs": [
        {
          "internalType": "string",
          "name": "",
          "type": "string"
        }
      ],
      "stateMutability": "view",
      "type": "function"
    },
    {
      "inputs": [],
      "name": "totalSupply",
      "outputs": [
        {
          "internalType": "uint256",
          "name": "",
          "type": "uint256"
        }
      ],
      "stateMutability": "view",
      "type": "function"
    },
    {
      "inputs": [
        {
          "internalType": "address",
          "name": "to",
          "type": "address"
        },
        {
          "internalType": "uint256",
          "name": "value",
          "type": "uint256"
        }
      ],
      "name": "transfer",
      "outputs": [
        {
          "internalType": "bool",
          "name": "",
          "type": "bool"
        }
      ],
      "stateMutability": "nonpayable",
      "type": "function"
    },
    {
      "inputs": [
        {
          "internalType": "address",
          "name": "from",
          "type": "address"
        },
        {
          "internalType": "address",
          "name": "to",
          "type": "address"
        },
        {
          "internalType": "uint256",
          "name": "value",
          "type": "uint256"
        }
      ],
      "name": "transferFrom",
      "outputs": [
        {
          "internalType": "bool",
          "name": "",
          "type": "bool"
        }
      ],
      "stateMutability": "nonpayable",
      "type": "function"
    }
  ],
  "bytecode": "0x6101606040523480156200001257600080fd5b506040518060400160405280600781526020017f456767436f696e00000000000000000000000000000000000000000000000000815250806040518060400160405280600181526020017f31000000000000000000000000000000000000000000000000000000000000008152506040518060400160405280600781526020017f456767436f696e000000000000000000000000000000000000000000000000008152506040518060400160405280600381526020017f45474700000000000000000000000000000000000000000000000000000000008152508160039081620000fd919062000737565b5080600490816200010f919062000737565b505050620001286006836200021a60201b90919060201c565b6101208181525050620001466007826200021a60201b90919060201c565b6101408181525050818051906020012060e08181525050808051906020012061010081815250504660a08181525050620001856200027260201b60201c565b608081815250503073ffffffffffffffffffffffffffffffffffffffff1660c08173ffffffffffffffffffffffffffffffffffffffff16815250505050506001600981905550620001e06000801b33620002cf60201b60201c565b50620002137fa49807205ce4d355092ef5a8a18f56e8913cf4a201fbe287825b095693c2177533620002cf60201b60201c565b5062000a41565b600060208351101562000240576200023883620003d360201b60201c565b90506200026c565b8262000252836200044060201b60201c565b600001908162000263919062000737565b5060ff60001b90505b92915050565b60007f8b73c3c69bb8fe3d512ecc4cf759cc79239f7b179b0ffacaa9a75d522b39400f60e051610100514630604051602001620002b49594939291906200088f565b60405160208183030381529060405280519060200120905090565b6000620002e383836200044a60201b60201c565b620003c85760016005600085815260200190815260200160002060000160008473ffffffffffffffffffffffffffffffffffffffff1673ffffffffffffffffffffffffffffffffffffffff16815260200190815260200160002060006101000a81548160ff02191690831515021790555062000364620004b560201b60201c565b73ffffffffffffffffffffffffffffffffffffffff168273ffffffffffffffffffffffffffffffffffffffff16847f2f8788117e7eff1d82e926ec794901d17c78024a50270940304540a733656f0d60405160405180910390a460019050620003cd565b600090505b92915050565b600080829050601f815111156200042357826040517f305a27a90000000000000000000000000000000000000000000000000000000081526004016200041a91906200097b565b60405180910390fd5b8051816200043190620009d1565b60001c1760001b915050919050565b6000819050919050565b60006005600084815260200190815260200160002060000160008373ffffffffffffffffffffffffffffffffffffffff1673ffffffffffffffffffffffffffffffffffffffff16815260200190815260200160002060009054906101000a900460ff16905092915050565b600033905090565b600081519050919050565b7f4e487b7100000000000000000000000000000000000000000000000000000000600052604160045260246000fd5b7f4e487b7100000000000000000000000000000000000000000000000000000000600052602260045260246000fd5b600060028204905060018216806200053f57607f821691505b602082108103620005555762000554620004f7565b5b50919050565b60008190508160005260206000209050919050565b60006020601f8301049050919050565b600082821b905092915050565b600060088302620005bf7fffffffffffffffffffffffffffffffffffffffffffffffffffffffffffffffff8262000580565b620005cb868362000580565b95508019841693508086168417925050509392505050565b6000819050919050565b6000819050919050565b600062000618620006126200060c84620005e3565b620005ed565b620005e3565b9050919050565b6000819050919050565b6200063483620005f7565b6200064c62000643826200061f565b8484546200058d565b825550505050565b600090565b6200066362000654565b6200067081848462000629565b505050565b5b8181101562000698576200068c60008262000659565b60018101905062000676565b5050565b601f821115620006e757620006b1816200055b565b620006bc8462000570565b81016020851015620006cc578190505b620006e4620006db8562000570565b83018262000675565b50505b505050565b600082821c905092915050565b60006200070c60001984600802620006ec565b1980831691505092915050565b6000620007278383620006f9565b9150826002028217905092915050565b6200074282620004bd565b67ffffffffffffffff8111156200075e576200075d620004c8565b5b6200076a825462000526565b620007778282856200069c565b600060209050601f831160018114620007af57600084156200079a578287015190505b620007a6858262000719565b86555062000816565b601f198416620007bf866200055b565b60005b82811015620007e957848901518255600182019150602085019450602081019050620007c2565b8683101562000809578489015162000805601f891682620006f9565b8355505b6001600288020188555050505b505050505050565b6000819050919050565b62000833816200081e565b82525050565b6200084481620005e3565b82525050565b600073ffffffffffffffffffffffffffffffffffffffff82169050919050565b600062000877826200084a565b9050919050565b62000889816200086a565b82525050565b600060a082019050620008a6600083018862000828565b620008b5602083018762000828565b620008c4604083018662000828565b620008d3606083018562000839565b620008e260808301846200087e565b9695505050505050565b600082825260208201905092915050565b60005b838110156200091d57808201518184015260208101905062000900565b60008484015250505050565b6000601f19601f8301169050919050565b60006200094782620004bd565b620009538185620008ec565b935062000965818560208601620008fd565b620009708162000929565b840191505092915050565b600060208201905081810360008301526200099781846200093a565b905092915050565b600081519050919050565b6000819050602082019050919050565b6000620009c882516200081e565b80915050919050565b6000620009de826200099f565b82620009ea84620009aa565b9050620009f781620009ba565b9250602082101562000a3a5762000a357fffffffffffffffffffffffffffffffffffffffffffffffffffffffffffffffff8360200360080262000580565b831692505b5050919050565b60805160a05160c05160e0516101005161012051610140516128d362000a9c60003960006114b90152600061147e01526000611aa101526000611a80015260006112040152600061125a0152600061128301526128d36000f3fe608060405234801561001057600080fd5b50600436106101cf5760003560e01c806375b238fc11610104578063a9059cbb116100a2578063d547741f11610071578063d547741f1461054e578063dd62ed3e1461056a578063e73f45291461059a578063f5be7bc8146105b6576101cf565b8063a9059cbb146104c6578063b3ccbcfe146104f6578063d505accf14610514578063d539139314610530576101cf565b806391d14854116100de57806391d148541461043e57806395d89b411461046e5780639dc29fac1461048c578063a217fddf146104a8576101cf565b806375b238fc146103cc5780637ecebe00146103ea57806384b0196e1461041a576101cf565b80632f2ff15d1161017157806336568abe1161014b57806336568abe1461034657806340c10f1914610362578063665a11ca1461037e57806370a082311461039c576101cf565b80632f2ff15d146102ee578063313ce5671461030a5780633644e51514610328576101cf565b806318160ddd116101ad57806318160ddd1461025257806323b872dd14610270578063248a9ca3146102a0578063282c51f3146102d0576101cf565b806301ffc9a7146101d457806306fdde0314610204578063095ea7b314610222575b600080fd5b6101ee60048036038101906101e99190611f5b565b6105d2565b6040516101fb9190611fa3565b60405180910390f35b61020c61064c565b604051610219919061204e565b60405180910390f35b61023c60048036038101906102379190612104565b6106de565b6040516102499190611fa3565b60405180910390f35b61025a610701565b6040516102679190612153565b60405180910390f35b61028a6004803603810190610285919061216e565b61070b565b6040516102979190611fa3565b60405180910390f35b6102ba60048036038101906102b591906121f7565b61073a565b6040516102c79190612233565b60405180910390f35b6102d861075a565b6040516102e59190612233565b60405180910390f35b6103086004803603810190610303919061224e565b61077e565b005b6103126107a0565b60405161031f91906122aa565b60405180910390f35b6103306107a9565b60405161033d9190612233565b60405180910390f35b610360600480360381019061035b919061224e565b6107b8565b005b61037c60048036038101906103779190612104565b610833565b005b61038661086c565b60405161039391906122d4565b60405180910390f35b6103b660048036038101906103b191906122ef565b610892565b6040516103c39190612153565b60405180910390f35b6103d46108da565b6040516103e19190612233565b60405180910390f35b61040460048036038101906103ff91906122ef565b6108fe565b6040516104119190612153565b60405180910390f35b610422610910565b6040516104359796959493929190612415565b60405180910390f35b6104586004803603810190610453919061224e565b6109ba565b6040516104659190611fa3565b60405180910390f35b610476610a25565b604051610483919061204e565b60405180910390f35b6104a660048036038101906104a19190612104565b610ab7565b005b6104b0610af0565b6040516104bd9190612233565b60405180910390f35b6104e060048036038101906104db9190612104565b610af7565b6040516104ed9190611fa3565b60405180910390f35b6104fe610b1a565b60405161050b91906122d4565b60405180910390f35b61052e600480360381019061052991906124c5565b610b40565b005b610538610c88565b6040516105459190612233565b60405180910390f35b6105686004803603810190610563919061224e565b610cac565b005b610584600480360381019061057f9190612567565b610cce565b6040516105919190612153565b60405180910390f35b6105b460048036038101906105af91906125a7565b610d55565b005b6105d060048036038101906105cb9190612104565b610eb3565b005b60007f7965db0b000000000000000000000000000000000000000000000000000000007bffffffffffffffffffffffffffffffffffffffffffffffffffffffff1916827bffffffffffffffffffffffffffffffffffffffffffffffffffffffff19161480610645575061064482610eed565b5b9050919050565b60606003805461065b90612629565b80601f016020809104026020016040519081016040528092919081815260200182805461068790612629565b80156106d45780601f106106a9576101008083540402835291602001916106d4565b820191906000526020600020905b8154815290600101906020018083116106b757829003601f168201915b5050505050905090565b6000806106e9610f57565b90506106f6818585610f5f565b600191505092915050565b6000600254905090565b600080610716610f57565b9050610723858285610f71565b61072e858585611006565b60019150509392505050565b600060056000838152602001908152602001600020600101549050919050565b7f3c11d16cbaffd01df69ce1c404f6340ee057498f5f00246190ea54220576a84881565b6107878261073a565b610790816110fa565b61079a838361110e565b50505050565b60006012905090565b60006107b3611200565b905090565b6107c0610f57565b73ffffffffffffffffffffffffffffffffffffffff168173ffffffffffffffffffffffffffffffffffffffff1614610824576040517f6697b23200000000000000000000000000000000000000000000000000000000815260040160405180910390fd5b61082e82826112b7565b505050565b7f9f2df0fed2c77648de5860a4cc508cd0818c85b8b8a1ab4ceeef8d981c8956a661085d816110fa565b61086783836113aa565b505050565b600a60009054906101000a900473ffffffffffffffffffffffffffffffffffffffff1681565b60008060008373ffffffffffffffffffffffffffffffffffffffff1673ffffffffffffffffffffffffffffffffffffffff168152602001908152602001600020549050919050565b7fa49807205ce4d355092ef5a8a18f56e8913cf4a201fbe287825b095693c2177581565b60006109098261142c565b9050919050565b600060608060008060006060610924611475565b61092c6114b0565b46306000801b600067ffffffffffffffff81111561094d5761094c61265a565b5b60405190808252806020026020018201604052801561097b5781602001602082028036833780820191505090505b507f0f00000000000000000000000000000000000000000000000000000000000000959493929190965096509650965096509650965090919293949596565b60006005600084815260200190815260200160002060000160008373ffffffffffffffffffffffffffffffffffffffff1673ffffffffffffffffffffffffffffffffffffffff16815260200190815260200160002060009054906101000a900460ff16905092915050565b606060048054610a3490612629565b80601f0160208091040260200160405190810160405280929190818152602001828054610a6090612629565b8015610aad5780601f10610a8257610100808354040283529160200191610aad565b820191906000526020600020905b815481529060010190602001808311610a9057829003601f168201915b5050505050905090565b7f3c11d16cbaffd01df69ce1c404f6340ee057498f5f00246190ea54220576a848610ae1816110fa565b610aeb83836114eb565b505050565b6000801b81565b600080610b02610f57565b9050610b0f818585611006565b600191505092915050565b600b60009054906101000a900473ffffffffffffffffffffffffffffffffffffffff1681565b83421115610b8557836040517f62791302000000000000000000000000000000000000000000000000000000008152600401610b7c9190612153565b60405180910390fd5b60007f6e71edae12b1b97f4d1f60370fef10105fa2faae0126114a169c64845d6126c9888888610bb48c61156d565b89604051602001610bca96959493929190612689565b6040516020818303038152906040528051906020012090506000610bed826115c4565b90506000610bfd828787876115de565b90508973ffffffffffffffffffffffffffffffffffffffff168173ffffffffffffffffffffffffffffffffffffffff1614610c7157808a6040517f4b800e46000000000000000000000000000000000000000000000000000000008152600401610c689291906126ea565b60405180910390fd5b610c7c8a8a8a610f5f565b50505050505050505050565b7f9f2df0fed2c77648de5860a4cc508cd0818c85b8b8a1ab4ceeef8d981c8956a681565b610cb58261073a565b610cbe816110fa565b610cc883836112b7565b50505050565b6000600160008473ffffffffffffffffffffffffffffffffffffffff1673ffffffffffffffffffffffffffffffffffffffff16815260200190815260200160002060008373ffffffffffffffffffffffffffffffffffffffff1673ffffffffffffffffffffffffffffffffffffffff16815260200190815260200160002054905092915050565b7fa49807205ce4d355092ef5a8a18f56e8913cf4a201fbe287825b095693c21775610d7f816110fa565b83600a60006101000a81548173ffffffffffffffffffffffffffffffffffffffff021916908373ffffffffffffffffffffffffffffffffffffffff16021790555082600b60006101000a81548173ffffffffffffffffffffffffffffffffffffffff021916908373ffffffffffffffffffffffffffffffffffffffff160217905550610e2b7f9f2df0fed2c77648de5860a4cc508cd0818c85b8b8a1ab4ceeef8d981c8956a68561110e565b50610e567f3c11d16cbaffd01df69ce1c404f6340ee057498f5f00246190ea54220576a8488461110e565b50610e817f3c11d16cbaffd01df69ce1c404f6340ee057498f5f00246190ea54220576a8488561110e565b50610eac7fa49807205ce4d355092ef5a8a18f56e8913cf4a201fbe287825b095693c217758361110e565b5050505050565b7fa49807205ce4d355092ef5a8a18f56e8913cf4a201fbe287825b095693c21775610edd816110fa565b610ee8308484610f5f565b505050565b60007f01ffc9a7000000000000000000000000000000000000000000000000000000007bffffffffffffffffffffffffffffffffffffffffffffffffffffffff1916827bffffffffffffffffffffffffffffffffffffffffffffffffffffffff1916149050919050565b600033905090565b610f6c838383600161160e565b505050565b6000610f7d8484610cce565b90507fffffffffffffffffffffffffffffffffffffffffffffffffffffffffffffffff8110156110005781811015610ff0578281836040517ffb8f41b2000000000000000000000000000000000000000000000000000000008152600401610fe793929190612713565b60405180910390fd5b610fff8484848403600061160e565b5b50505050565b600073ffffffffffffffffffffffffffffffffffffffff168373ffffffffffffffffffffffffffffffffffffffff16036110785760006040517f96c6fd1e00000000000000000000000000000000000000000000000000000000815260040161106f91906122d4565b60405180910390fd5b600073ffffffffffffffffffffffffffffffffffffffff168273ffffffffffffffffffffffffffffffffffffffff16036110ea5760006040517fec442f050000000000000000000000000000000000000000000000000000000081526004016110e191906122d4565b60405180910390fd5b6110f58383836117e5565b505050565b61110b81611106610f57565b611a0a565b50565b600061111a83836109ba565b6111f55760016005600085815260200190815260200160002060000160008473ffffffffffffffffffffffffffffffffffffffff1673ffffffffffffffffffffffffffffffffffffffff16815260200190815260200160002060006101000a81548160ff021916908315150217905550611192610f57565b73ffffffffffffffffffffffffffffffffffffffff168273ffffffffffffffffffffffffffffffffffffffff16847f2f8788117e7eff1d82e926ec794901d17c78024a50270940304540a733656f0d60405160405180910390a4600190506111fa565b600090505b92915050565b60007f000000000000000000000000000000000000000000000000000000000000000073ffffffffffffffffffffffffffffffffffffffff163073ffffffffffffffffffffffffffffffffffffffff1614801561127c57507f000000000000000000000000000000000000000000000000000000000000000046145b156112a9577f000000000000000000000000000000000000000000000000000000000000000090506112b4565b6112b1611a5b565b90505b90565b60006112c383836109ba565b1561139f5760006005600085815260200190815260200160002060000160008473ffffffffffffffffffffffffffffffffffffffff1673ffffffffffffffffffffffffffffffffffffffff16815260200190815260200160002060006101000a81548160ff02191690831515021790555061133c610f57565b73ffffffffffffffffffffffffffffffffffffffff168273ffffffffffffffffffffffffffffffffffffffff16847ff6391f5c32d9c69d2a47ea670b442974b53935d1edc7fd64eb21e047a839171b60405160405180910390a4600190506113a4565b600090505b92915050565b600073ffffffffffffffffffffffffffffffffffffffff168273ffffffffffffffffffffffffffffffffffffffff160361141c5760006040517fec442f0500000000000000000000000000000000000000000000000000000000815260040161141391906122d4565b60405180910390fd5b611428600083836117e5565b5050565b6000600860008373ffffffffffffffffffffffffffffffffffffffff1673ffffffffffffffffffffffffffffffffffffffff168152602001908152602001600020549050919050565b60606114ab60067f0000000000000000000000000000000000000000000000000000000000000000611af190919063ffffffff16565b905090565b60606114e660077f0000000000000000000000000000000000000000000000000000000000000000611af190919063ffffffff16565b905090565b600073ffffffffffffffffffffffffffffffffffffffff168273ffffffffffffffffffffffffffffffffffffffff160361155d5760006040517f96c6fd1e00000000000000000000000000000000000000000000000000000000815260040161155491906122d4565b60405180910390fd5b611569826000836117e5565b5050565b6000600860008373ffffffffffffffffffffffffffffffffffffffff1673ffffffffffffffffffffffffffffffffffffffff1681526020019081526020016000206000815480929190600101919050559050919050565b60006115d76115d1611200565b83611ba1565b9050919050565b6000806000806115f088888888611be2565b9250925092506116008282611cd6565b829350505050949350505050565b600073ffffffffffffffffffffffffffffffffffffffff168473ffffffffffffffffffffffffffffffffffffffff16036116805760006040517fe602df0500000000000000000000000000000000000000000000000000000000815260040161167791906122d4565b60405180910390fd5b600073ffffffffffffffffffffffffffffffffffffffff168373ffffffffffffffffffffffffffffffffffffffff16036116f25760006040517f94280d620000000000000000000000000000000000000000000000000000000081526004016116e991906122d4565b60405180910390fd5b81600160008673ffffffffffffffffffffffffffffffffffffffff1673ffffffffffffffffffffffffffffffffffffffff16815260200190815260200160002060008573ffffffffffffffffffffffffffffffffffffffff1673ffffffffffffffffffffffffffffffffffffffff1681526020019081526020016000208190555080156117df578273ffffffffffffffffffffffffffffffffffffffff168473ffffffffffffffffffffffffffffffffffffffff167f8c5be1e5ebec7d5bd14f71427d1e84f3dd0314c0f7b2291e5b200ac8c7c3b925846040516117d69190612153565b60405180910390a35b50505050565b600073ffffffffffffffffffffffffffffffffffffffff168373ffffffffffffffffffffffffffffffffffffffff160361183757806002600082825461182b9190612779565b9250508190555061190a565b60008060008573ffffffffffffffffffffffffffffffffffffffff1673ffffffffffffffffffffffffffffffffffffffff168152602001908152602001600020549050818110156118c3578381836040517fe450d38c0000000000000000000000000000000000000000000000000000000081526004016118ba93929190612713565b60405180910390fd5b8181036000808673ffffffffffffffffffffffffffffffffffffffff1673ffffffffffffffffffffffffffffffffffffffff16815260200190815260200160002081905550505b600073ffffffffffffffffffffffffffffffffffffffff168273ffffffffffffffffffffffffffffffffffffffff160361195357806002600082825403925050819055506119a0565b806000808473ffffffffffffffffffffffffffffffffffffffff1673ffffffffffffffffffffffffffffffffffffffff168152602001908152602001600020600082825401925050819055505b8173ffffffffffffffffffffffffffffffffffffffff168373ffffffffffffffffffffffffffffffffffffffff167fddf252ad1be2c89b69c2b068fc378daa952ba7f163c4a11628f55a4df523b3ef836040516119fd9190612153565b60405180910390a3505050565b611a1482826109ba565b611a575780826040517fe2517d3f000000000000000000000000000000000000000000000000000000008152600401611a4e9291906127ad565b60405180910390fd5b5050565b60007f8b73c3c69bb8fe3d512ecc4cf759cc79239f7b179b0ffacaa9a75d522b39400f7f00000000000000000000000000000000000000000000000000000000000000007f00000000000000000000000000000000000000000000000000000000000000004630604051602001611ad69594939291906127d6565b60405160208183030381529060405280519060200120905090565b606060ff60001b8314611b0e57611b0783611e3a565b9050611b9b565b818054611b1a90612629565b80601f0160208091040260200160405190810160405280929190818152602001828054611b4690612629565b8015611b935780601f10611b6857610100808354040283529160200191611b93565b820191906000526020600020905b815481529060010190602001808311611b7657829003601f168201915b505050505090505b92915050565b60006040517f190100000000000000000000000000000000000000000000000000000000000081528360028201528260228201526042812091505092915050565b60008060007f7fffffffffffffffffffffffffffffff5d576e7357a4501ddfe92f46681b20a08460001c1115611c22576000600385925092509250611ccc565b600060018888888860405160008152602001604052604051611c479493929190612829565b6020604051602081039080840390855afa158015611c69573d6000803e3d6000fd5b505050602060405103519050600073ffffffffffffffffffffffffffffffffffffffff168173ffffffffffffffffffffffffffffffffffffffff1603611cbd57600060016000801b93509350935050611ccc565b8060008060001b935093509350505b9450945094915050565b60006003811115611cea57611ce961286e565b5b826003811115611cfd57611cfc61286e565b5b0315611e365760016003811115611d1757611d1661286e565b5b826003811115611d2a57611d2961286e565b5b03611d61576040517ff645eedf00000000000000000000000000000000000000000000000000000000815260040160405180910390fd5b60026003811115611d7557611d7461286e565b5b826003811115611d8857611d8761286e565b5b03611dcd578060001c6040517ffce698f7000000000000000000000000000000000000000000000000000000008152600401611dc49190612153565b60405180910390fd5b600380811115611de057611ddf61286e565b5b826003811115611df357611df261286e565b5b03611e3557806040517fd78bce0c000000000000000000000000000000000000000000000000000000008152600401611e2c9190612233565b60405180910390fd5b5b5050565b60606000611e4783611eae565b90506000602067ffffffffffffffff811115611e6657611e6561265a565b5b6040519080825280601f01601f191660200182016040528015611e985781602001600182028036833780820191505090505b5090508181528360208201528092505050919050565b60008060ff8360001c169050601f811115611ef5576040517fb3512b0c00000000000000000000000000000000000000000000000000000000815260040160405180910390fd5b80915050919050565b600080fd5b60007fffffffff0000000000000000000000000000000000000000000000000000000082169050919050565b611f3881611f03565b8114611f4357600080fd5b50565b600081359050611f5581611f2f565b92915050565b600060208284031215611f7157611f70611efe565b5b6000611f7f84828501611f46565b91505092915050565b60008115159050919050565b611f9d81611f88565b82525050565b6000602082019050611fb86000830184611f94565b92915050565b600081519050919050565b600082825260208201905092915050565b60005b83811015611ff8578082015181840152602081019050611fdd565b60008484015250505050565b6000601f19601f8301169050919050565b600061202082611fbe565b61202a8185611fc9565b935061203a818560208601611fda565b61204381612004565b840191505092915050565b600060208201905081810360008301526120688184612015565b905092915050565b600073ffffffffffffffffffffffffffffffffffffffff82169050919050565b600061209b82612070565b9050919050565b6120ab81612090565b81146120b657600080fd5b50565b6000813590506120c8816120a2565b92915050565b6000819050919050565b6120e1816120ce565b81146120ec57600080fd5b50565b6000813590506120fe816120d8565b92915050565b6000806040838503121561211b5761211a611efe565b5b6000612129858286016120b9565b925050602061213a858286016120ef565b9150509250929050565b61214d816120ce565b82525050565b60006020820190506121686000830184612144565b92915050565b60008060006060848603121561218757612186611efe565b5b6000612195868287016120b9565b93505060206121a6868287016120b9565b92505060406121b7868287016120ef565b9150509250925092565b6000819050919050565b6121d4816121c1565b81146121df57600080fd5b50565b6000813590506121f1816121cb565b92915050565b60006020828403121561220d5761220c611efe565b5b600061221b848285016121e2565b91505092915050565b61222d816121c1565b82525050565b60006020820190506122486000830184612224565b92915050565b6000806040838503121561226557612264611efe565b5b6000612273858286016121e2565b9250506020612284858286016120b9565b9150509250929050565b600060ff82169050919050565b6122a48161228e565b82525050565b60006020820190506122bf600083018461229b565b92915050565b6122ce81612090565b82525050565b60006020820190506122e960008301846122c5565b92915050565b60006020828403121561230557612304611efe565b5b6000612313848285016120b9565b91505092915050565b60007fff0000000000000000000000000000000000000000000000000000000000000082169050919050565b6123518161231c565b82525050565b600081519050919050565b600082825260208201905092915050565b6000819050602082019050919050565b61238c816120ce565b82525050565b600061239e8383612383565b60208301905092915050565b6000602082019050919050565b60006123c282612357565b6123cc8185612362565b93506123d783612373565b8060005b838110156124085781516123ef8882612392565b97506123fa836123aa565b9250506001810190506123db565b5085935050505092915050565b600060e08201905061242a600083018a612348565b818103602083015261243c8189612015565b905081810360408301526124508188612015565b905061245f6060830187612144565b61246c60808301866122c5565b61247960a0830185612224565b81810360c083015261248b81846123b7565b905098975050505050505050565b6124a28161228e565b81146124ad57600080fd5b50565b6000813590506124bf81612499565b92915050565b600080600080600080600060e0888a0312156124e4576124e3611efe565b5b60006124f28a828b016120b9565b97505060206125038a828b016120b9565b96505060406125148a828b016120ef565b95505060606125258a828b016120ef565b94505060806125368a828b016124b0565b93505060a06125478a828b016121e2565b92505060c06125588a828b016121e2565b91505092959891949750929550565b6000806040838503121561257e5761257d611efe565b5b600061258c858286016120b9565b925050602061259d858286016120b9565b9150509250929050565b6000806000606084860312156125c0576125bf611efe565b5b60006125ce868287016120b9565b93505060206125df868287016120b9565b92505060406125f0868287016120b9565b9150509250925092565b7f4e487b7100000000000000000000000000000000000000000000000000000000600052602260045260246000fd5b6000600282049050600182168061264157607f821691505b602082108103612654576126536125fa565b5b50919050565b7f4e487b7100000000000000000000000000000000000000000000000000000000600052604160045260246000fd5b600060c08201905061269e6000830189612224565b6126ab60208301886122c5565b6126b860408301876122c5565b6126c56060830186612144565b6126d26080830185612144565b6126df60a0830184612144565b979650505050505050565b60006040820190506126ff60008301856122c5565b61270c60208301846122c5565b9392505050565b600060608201905061272860008301866122c5565b6127356020830185612144565b6127426040830184612144565b949350505050565b7f4e487b7100000000000000000000000000000000000000000000000000000000600052601160045260246000fd5b6000612784826120ce565b915061278f836120ce565b92508282019050808211156127a7576127a661274a565b5b92915050565b60006040820190506127c260008301856122c5565b6127cf6020830184612224565b9392505050565b600060a0820190506127eb6000830188612224565b6127f86020830187612224565b6128056040830186612224565b6128126060830185612144565b61281f60808301846122c5565b9695505050505050565b600060808201905061283e6000830187612224565b61284b602083018661229b565b6128586040830185612224565b6128656060830184612224565b95945050505050565b7f4e487b7100000000000000000000000000000000000000000000000000000000600052602160045260246000fdfea2646970667358221220c6c6b805c57323a52416480e41b3650f8fd517e92d58fdf42406ccd5b90fc89f64736f6c63430008140033",
  "linkReferences": {},
  "deployedLinkReferences": {}
}