{
  "_format": "hh-sol-artifact-1",
  "contractName": "LendingProtocol",
  "sourceName": "contracts/LendingProtocol.sol",
  "abi": [
    {
      "inputs": [
        {
          "internalType": "address",
          "name": "_eggToken",
          "type": "address"
        }
      ],
      "stateMutability": "nonpayable",
      "type": "constructor"
    },
    {
      "inputs": [
        {
          "internalType": "address",
          "name": "owner",
          "type": "address"
        }
      ],
      "name": "OwnableInvalidOwner",
      "type": "error"
    },
    {
      "inputs": [
        {
          "internalType": "address",
          "name": "account",
          "type": "address"
        }
      ],
      "name": "OwnableUnauthorizedAccount",
      "type": "error"
    },
    {
      "anonymous": false,
      "inputs": [
        {
          "indexed": true,
          "internalType": "address",
          "name": "user",
          "type": "address"
        },
        {
          "indexed": false,
          "internalType": "uint256",
          "name": "amount",
          "type": "uint256"
        }
      ],
      "name": "Borrowed",
      "type": "event"
    },
    {
      "anonymous": false,
      "inputs": [
        {
          "indexed": true,
          "internalType": "address",
          "name": "user",
          "type": "address"
        },
        {
          "indexed": false,
          "internalType": "uint256",
          "name": "amount",
          "type": "uint256"
        }
      ],
      "name": "Deposited",
      "type": "event"
    },
    {
      "anonymous": false,
      "inputs": [
        {
          "indexed": true,
          "internalType": "address",
          "name": "previousOwner",
          "type": "address"
        },
        {
          "indexed": true,
          "internalType": "address",
          "name": "newOwner",
          "type": "address"
        }
      ],
      "name": "OwnershipTransferred",
      "type": "event"
    },
    {
      "anonymous": false,
      "inputs": [
        {
          "indexed": true,
          "internalType": "address",
          "name": "user",
          "type": "address"
        },
        {
          "indexed": false,
          "internalType": "uint256",
          "name": "amount",
          "type": "uint256"
        },
        {
          "indexed": false,
          "internalType": "uint256",
          "name": "interest",
          "type": "uint256"
        }
      ],
      "name": "Repaid",
      "type": "event"
    },
    {
      "anonymous": false,
      "inputs": [
        {
          "indexed": true,
          "internalType": "address",
          "name": "user",
          "type": "address"
        },
        {
          "indexed": false,
          "internalType": "uint256",
          "name": "amount",
          "type": "uint256"
        },
        {
          "indexed": false,
          "internalType": "uint256",
          "name": "interest",
          "type": "uint256"
        }
      ],
      "name": "Withdrawn",
      "type": "event"
    },
    {
      "inputs": [],
      "name": "availableLiquidity",
      "outputs": [
        {
          "internalType": "uint256",
          "name": "",
          "type": "uint256"
        }
      ],
      "stateMutability": "view",
      "type": "function"
    },
    {
      "inputs": [
        {
          "internalType": "uint256",
          "name": "amount",
          "type": "uint256"
        }
      ],
      "name": "borrow",
      "outputs": [],
      "stateMutability": "nonpayable",
      "type": "function"
    },
    {
      "inputs": [],
      "name": "borrowingRate",
      "outputs": [
        {
          "internalType": "uint256",
          "name": "",
          "type": "uint256"
        }
      ],
      "stateMutability": "view",
      "type": "function"
    },
    {
      "inputs": [
        {
          "internalType": "address",
          "name": "user",
          "type": "address"
        }
      ],
      "name": "calculateInterest",
      "outputs": [
        {
          "internalType": "uint256",
          "name": "",
          "type": "uint256"
        }
      ],
      "stateMutability": "view",
      "type": "function"
    },
    {
      "inputs": [
        {
          "internalType": "address",
          "name": "user",
          "type": "address"
        }
      ],
      "name": "calculateLoanInterest",
      "outputs": [
        {
          "internalType": "uint256",
          "name": "",
          "type": "uint256"
        }
      ],
      "stateMutability": "view",
      "type": "function"
    },
    {
      "inputs": [
        {
          "internalType": "uint256",
          "name": "amount",
          "type": "uint256"
        }
      ],
      "name": "deposit",
      "outputs": [],
      "stateMutability": "nonpayable",
      "type": "function"
    },
    {
      "inputs": [
        {
          "internalType": "address",
          "name": "",
          "type": "address"
        }
      ],
      "name": "deposits",
      "outputs": [
        {
          "internalType": "uint256",
          "name": "",
          "type": "uint256"
        }
      ],
      "stateMutability": "view",
      "type": "function"
    },
    {
      "inputs": [],
      "name": "eggToken",
      "outputs": [
        {
          "internalType": "contract IERC20",
          "name": "",
          "type": "address"
        }
      ],
      "stateMutability": "view",
      "type": "function"
    },
    {
      "inputs": [],
      "name": "lendingRate",
      "outputs": [
        {
          "internalType": "uint256",
          "name": "",
          "type": "uint256"
        }
      ],
      "stateMutability": "view",
      "type": "function"
    },
    {
      "inputs": [
        {
          "internalType": "address",
          "name": "",
          "type": "address"
        }
      ],
      "name": "loans",
      "outputs": [
        {
          "internalType": "uint256",
          "name": "amount",
          "type": "uint256"
        },
        {
          "internalType": "uint256",
          "name": "startTime",
          "type": "uint256"
        }
      ],
      "stateMutability": "view",
      "type": "function"
    },
    {
      "inputs": [],
      "name": "owner",
      "outputs": [
        {
          "internalType": "address",
          "name": "",
          "type": "address"
        }
      ],
      "stateMutability": "view",
      "type": "function"
    },
    {
      "inputs": [],
      "name": "renounceOwnership",
      "outputs": [],
      "stateMutability": "nonpayable",
      "type": "function"
    },
    {
      "inputs": [],
      "name": "repay",
      "outputs": [],
      "stateMutability": "nonpayable",
      "type": "function"
    },
    {
      "inputs": [
        {
          "internalType": "uint256",
          "name": "_lendingRate",
          "type": "uint256"
        },
        {
          "internalType": "uint256",
          "name": "_borrowingRate",
          "type": "uint256"
        }
      ],
      "name": "setRates",
      "outputs": [],
      "stateMutability": "nonpayable",
      "type": "function"
    },
    {
      "inputs": [],
      "name": "totalBorrowed",
      "outputs": [
        {
          "internalType": "uint256",
          "name": "",
          "type": "uint256"
        }
      ],
      "stateMutability": "view",
      "type": "function"
    },
    {
      "inputs": [],
      "name": "totalDeposited",
      "outputs": [
        {
          "internalType": "uint256",
          "name": "",
          "type": "uint256"
        }
      ],
      "stateMutability": "view",
      "type": "function"
    },
    {
      "inputs": [
        {
          "internalType": "address",
          "name": "newOwner",
          "type": "address"
        }
      ],
      "name": "transferOwnership",
      "outputs": [],
      "stateMutability": "nonpayable",
      "type": "function"
    },
    {
      "inputs": [
        {
          "internalType": "uint256",
          "name": "amount",
          "type": "uint256"
        }
      ],
      "name": "withdraw",
      "outputs": [],
      "stateMutability": "nonpayable",
      "type": "function"
    }
  ],
  "bytecode": "0x60a06040526005600255600f6003553480156200001b57600080fd5b5060405162001dc138038062001dc18339818101604052810190620000419190620002ab565b33600073ffffffffffffffffffffffffffffffffffffffff168173ffffffffffffffffffffffffffffffffffffffff1603620000b75760006040517f1e4fbdf7000000000000000000000000000000000000000000000000000000008152600401620000ae9190620002ee565b60405180910390fd5b620000c8816200017d60201b60201c565b5060018081905550600073ffffffffffffffffffffffffffffffffffffffff168173ffffffffffffffffffffffffffffffffffffffff160362000142576040517f08c379a000000000000000000000000000000000000000000000000000000000815260040162000139906200036c565b60405180910390fd5b8073ffffffffffffffffffffffffffffffffffffffff1660808173ffffffffffffffffffffffffffffffffffffffff1681525050506200038e565b60008060009054906101000a900473ffffffffffffffffffffffffffffffffffffffff169050816000806101000a81548173ffffffffffffffffffffffffffffffffffffffff021916908373ffffffffffffffffffffffffffffffffffffffff1602179055508173ffffffffffffffffffffffffffffffffffffffff168173ffffffffffffffffffffffffffffffffffffffff167f8be0079c531659141344cd1fd0a4f28419497f9722a3daafe3b4186f6b6457e060405160405180910390a35050565b600080fd5b600073ffffffffffffffffffffffffffffffffffffffff82169050919050565b6000620002738262000246565b9050919050565b620002858162000266565b81146200029157600080fd5b50565b600081519050620002a5816200027a565b92915050565b600060208284031215620002c457620002c362000241565b5b6000620002d48482850162000294565b91505092915050565b620002e88162000266565b82525050565b6000602082019050620003056000830184620002dd565b92915050565b600082825260208201905092915050565b7f496e76616c696420746f6b656e20616464726573730000000000000000000000600082015250565b6000620003546015836200030b565b915062000361826200031c565b602082019050919050565b60006020820190508181036000830152620003878162000345565b9050919050565b6080516119fb620003c6600039600081816104ab0152818161076a015281816109f001528181610b4c0152610e5001526119fb6000f3fe608060405234801561001057600080fd5b50600436106101165760003560e01c806399119d22116100a2578063c5ebeaec11610071578063c5ebeaec14610298578063e11932cf146102b4578063f2fde38b146102e4578063fc7e286d14610300578063ff50abdc1461033057610116565b806399119d2214610224578063ac6af28014610242578063b5b8453e1461025e578063b6b55f251461027c57610116565b8063715018a6116100e9578063715018a61461017d57806373b4086b1461018757806374375359146101b8578063825b4de8146101d65780638da5cb5b1461020657610116565b80632e1a7d4d1461011b578063402d888314610137578063449e765d146101415780634c19386c1461015f575b600080fd5b61013560048036038101906101309190611267565b61034e565b005b61013f6105e2565b005b6101496108a7565b60405161015691906112a3565b60405180910390f35b6101676108ad565b60405161017491906112a3565b60405180910390f35b6101856108b3565b005b6101a1600480360381019061019c919061131c565b6108c7565b6040516101af929190611349565b60405180910390f35b6101c06108eb565b6040516101cd91906112a3565b60405180910390f35b6101f060048036038101906101eb919061131c565b610902565b6040516101fd91906112a3565b60405180910390f35b61020e6109c5565b60405161021b9190611381565b60405180910390f35b61022c6109ee565b60405161023991906113fb565b60405180910390f35b61025c60048036038101906102579190611416565b610a12565b005b610266610ab4565b60405161027391906112a3565b60405180910390f35b61029660048036038101906102919190611267565b610aba565b005b6102b260048036038101906102ad9190611267565b610cf0565b005b6102ce60048036038101906102c9919061131c565b610f83565b6040516102db91906112a3565b60405180910390f35b6102fe60048036038101906102f9919061131c565b611035565b005b61031a6004803603810190610315919061131c565b6110bb565b60405161032791906112a3565b60405180910390f35b6103386110d3565b60405161034591906112a3565b60405180910390f35b600260015403610393576040517f08c379a000000000000000000000000000000000000000000000000000000000815260040161038a906114b3565b60405180910390fd5b600260018190555080600460003373ffffffffffffffffffffffffffffffffffffffff1673ffffffffffffffffffffffffffffffffffffffff16815260200190815260200160002054101561041d576040517f08c379a00000000000000000000000000000000000000000000000000000000081526004016104149061151f565b60405180910390fd5b600061042833610f83565b905060008183610438919061156e565b905082600460003373ffffffffffffffffffffffffffffffffffffffff1673ffffffffffffffffffffffffffffffffffffffff168152602001908152602001600020600082825461048991906115a2565b9250508190555082600660008282546104a291906115a2565b925050819055507f000000000000000000000000000000000000000000000000000000000000000073ffffffffffffffffffffffffffffffffffffffff1663a9059cbb33836040518363ffffffff1660e01b81526004016105049291906115d6565b6020604051808303816000875af1158015610523573d6000803e3d6000fd5b505050506040513d601f19601f820116820180604052508101906105479190611637565b610586576040517f08c379a000000000000000000000000000000000000000000000000000000000815260040161057d906116b0565b60405180910390fd5b3373ffffffffffffffffffffffffffffffffffffffff167f92ccf450a286a957af52509bc1c9939d1a6a481783e142e41e2499f0bb66ebc684846040516105ce929190611349565b60405180910390a250506001808190555050565b600260015403610627576040517f08c379a000000000000000000000000000000000000000000000000000000000815260040161061e906114b3565b60405180910390fd5b60026001819055506000600560003373ffffffffffffffffffffffffffffffffffffffff1673ffffffffffffffffffffffffffffffffffffffff16815260200190815260200160002060405180604001604052908160008201548152602001600182015481525050905060008160000151116106d8576040517f08c379a00000000000000000000000000000000000000000000000000000000081526004016106cf9061171c565b60405180910390fd5b60006106e333610902565b905060008183600001516106f7919061156e565b905082600001516007600082825461070f91906115a2565b92505081905550600560003373ffffffffffffffffffffffffffffffffffffffff1673ffffffffffffffffffffffffffffffffffffffff168152602001908152602001600020600080820160009055600182016000905550507f000000000000000000000000000000000000000000000000000000000000000073ffffffffffffffffffffffffffffffffffffffff166323b872dd3330846040518463ffffffff1660e01b81526004016107c59392919061173c565b6020604051808303816000875af11580156107e4573d6000803e3d6000fd5b505050506040513d601f19601f820116820180604052508101906108089190611637565b610847576040517f08c379a000000000000000000000000000000000000000000000000000000000815260040161083e906116b0565b60405180910390fd5b3373ffffffffffffffffffffffffffffffffffffffff167f1b8cd61ed43bec7c6bdad3a18ffee613f99c853d16c50678d248d879e1b43438846000015184604051610893929190611349565b60405180910390a250505060018081905550565b60025481565b60075481565b6108bb6110d9565b6108c56000611160565b565b60056020528060005260406000206000915090508060000154908060010154905082565b60006007546006546108fd91906115a2565b905090565b600080600560008473ffffffffffffffffffffffffffffffffffffffff1673ffffffffffffffffffffffffffffffffffffffff168152602001908152602001600020604051806040016040529081600082015481526020016001820154815250509050600081600001510361097b5760009150506109c0565b600081602001514261098d91906115a2565b905063bbf81e008160035484600001516109a79190611773565b6109b19190611773565b6109bb91906117e4565b925050505b919050565b60008060009054906101000a900473ffffffffffffffffffffffffffffffffffffffff16905090565b7f000000000000000000000000000000000000000000000000000000000000000081565b610a1a6110d9565b6064821115610a5e576040517f08c379a0000000000000000000000000000000000000000000000000000000008152600401610a5590611861565b60405180910390fd5b6064811115610aa2576040517f08c379a0000000000000000000000000000000000000000000000000000000008152600401610a99906118cd565b60405180910390fd5b81600281905550806003819055505050565b60035481565b600260015403610aff576040517f08c379a0000000000000000000000000000000000000000000000000000000008152600401610af6906114b3565b60405180910390fd5b600260018190555060008111610b4a576040517f08c379a0000000000000000000000000000000000000000000000000000000008152600401610b4190611939565b60405180910390fd5b7f000000000000000000000000000000000000000000000000000000000000000073ffffffffffffffffffffffffffffffffffffffff166323b872dd3330846040518463ffffffff1660e01b8152600401610ba79392919061173c565b6020604051808303816000875af1158015610bc6573d6000803e3d6000fd5b505050506040513d601f19601f82011682018060405250810190610bea9190611637565b610c29576040517f08c379a0000000000000000000000000000000000000000000000000000000008152600401610c20906116b0565b60405180910390fd5b80600460003373ffffffffffffffffffffffffffffffffffffffff1673ffffffffffffffffffffffffffffffffffffffff1681526020019081526020016000206000828254610c78919061156e565b925050819055508060066000828254610c91919061156e565b925050819055503373ffffffffffffffffffffffffffffffffffffffff167f2da466a7b24304f47e87fa2e1e5a81b9831ce54fec19055ce277ca2f39ba42c482604051610cde91906112a3565b60405180910390a26001808190555050565b600260015403610d35576040517f08c379a0000000000000000000000000000000000000000000000000000000008152600401610d2c906114b3565b60405180910390fd5b600260018190555060008111610d80576040517f08c379a0000000000000000000000000000000000000000000000000000000008152600401610d7790611939565b60405180910390fd5b610d886108eb565b811115610dca576040517f08c379a0000000000000000000000000000000000000000000000000000000008152600401610dc1906119a5565b60405180910390fd5b604051806040016040528082815260200142815250600560003373ffffffffffffffffffffffffffffffffffffffff1673ffffffffffffffffffffffffffffffffffffffff16815260200190815260200160002060008201518160000155602082015181600101559050508060076000828254610e47919061156e565b925050819055507f000000000000000000000000000000000000000000000000000000000000000073ffffffffffffffffffffffffffffffffffffffff1663a9059cbb33836040518363ffffffff1660e01b8152600401610ea99291906115d6565b6020604051808303816000875af1158015610ec8573d6000803e3d6000fd5b505050506040513d601f19601f82011682018060405250810190610eec9190611637565b610f2b576040517f08c379a0000000000000000000000000000000000000000000000000000000008152600401610f22906116b0565b60405180910390fd5b3373ffffffffffffffffffffffffffffffffffffffff167fac59582e5396aca512fa873a2047e7f4c80f8f55d4a06cb34a78a0187f62719f82604051610f7191906112a3565b60405180910390a26001808190555050565b600080600460008473ffffffffffffffffffffffffffffffffffffffff1673ffffffffffffffffffffffffffffffffffffffff1681526020019081526020016000205403610fd45760009050611030565b6064600254600460008573ffffffffffffffffffffffffffffffffffffffff1673ffffffffffffffffffffffffffffffffffffffff168152602001908152602001600020546110239190611773565b61102d91906117e4565b90505b919050565b61103d6110d9565b600073ffffffffffffffffffffffffffffffffffffffff168173ffffffffffffffffffffffffffffffffffffffff16036110af5760006040517f1e4fbdf70000000000000000000000000000000000000000000000000000000081526004016110a69190611381565b60405180910390fd5b6110b881611160565b50565b60046020528060005260406000206000915090505481565b60065481565b6110e1611224565b73ffffffffffffffffffffffffffffffffffffffff166110ff6109c5565b73ffffffffffffffffffffffffffffffffffffffff161461115e57611122611224565b6040517f118cdaa70000000000000000000000000000000000000000000000000000000081526004016111559190611381565b60405180910390fd5b565b60008060009054906101000a900473ffffffffffffffffffffffffffffffffffffffff169050816000806101000a81548173ffffffffffffffffffffffffffffffffffffffff021916908373ffffffffffffffffffffffffffffffffffffffff1602179055508173ffffffffffffffffffffffffffffffffffffffff168173ffffffffffffffffffffffffffffffffffffffff167f8be0079c531659141344cd1fd0a4f28419497f9722a3daafe3b4186f6b6457e060405160405180910390a35050565b600033905090565b600080fd5b6000819050919050565b61124481611231565b811461124f57600080fd5b50565b6000813590506112618161123b565b92915050565b60006020828403121561127d5761127c61122c565b5b600061128b84828501611252565b91505092915050565b61129d81611231565b82525050565b60006020820190506112b86000830184611294565b92915050565b600073ffffffffffffffffffffffffffffffffffffffff82169050919050565b60006112e9826112be565b9050919050565b6112f9816112de565b811461130457600080fd5b50565b600081359050611316816112f0565b92915050565b6000602082840312156113325761133161122c565b5b600061134084828501611307565b91505092915050565b600060408201905061135e6000830185611294565b61136b6020830184611294565b9392505050565b61137b816112de565b82525050565b60006020820190506113966000830184611372565b92915050565b6000819050919050565b60006113c16113bc6113b7846112be565b61139c565b6112be565b9050919050565b60006113d3826113a6565b9050919050565b60006113e5826113c8565b9050919050565b6113f5816113da565b82525050565b600060208201905061141060008301846113ec565b92915050565b6000806040838503121561142d5761142c61122c565b5b600061143b85828601611252565b925050602061144c85828601611252565b9150509250929050565b600082825260208201905092915050565b7f5265656e7472616e637947756172643a207265656e7472616e742063616c6c00600082015250565b600061149d601f83611456565b91506114a882611467565b602082019050919050565b600060208201905081810360008301526114cc81611490565b9050919050565b7f496e73756666696369656e74206465706f736974000000000000000000000000600082015250565b6000611509601483611456565b9150611514826114d3565b602082019050919050565b60006020820190508181036000830152611538816114fc565b9050919050565b7f4e487b7100000000000000000000000000000000000000000000000000000000600052601160045260246000fd5b600061157982611231565b915061158483611231565b925082820190508082111561159c5761159b61153f565b5b92915050565b60006115ad82611231565b91506115b883611231565b92508282039050818111156115d0576115cf61153f565b5b92915050565b60006040820190506115eb6000830185611372565b6115f86020830184611294565b9392505050565b60008115159050919050565b611614816115ff565b811461161f57600080fd5b50565b6000815190506116318161160b565b92915050565b60006020828403121561164d5761164c61122c565b5b600061165b84828501611622565b91505092915050565b7f5472616e73666572206661696c65640000000000000000000000000000000000600082015250565b600061169a600f83611456565b91506116a582611664565b602082019050919050565b600060208201905081810360008301526116c98161168d565b9050919050565b7f4e6f206c6f616e20746f20726570617900000000000000000000000000000000600082015250565b6000611706601083611456565b9150611711826116d0565b602082019050919050565b60006020820190508181036000830152611735816116f9565b9050919050565b60006060820190506117516000830186611372565b61175e6020830185611372565b61176b6040830184611294565b949350505050565b600061177e82611231565b915061178983611231565b925082820261179781611231565b915082820484148315176117ae576117ad61153f565b5b5092915050565b7f4e487b7100000000000000000000000000000000000000000000000000000000600052601260045260246000fd5b60006117ef82611231565b91506117fa83611231565b92508261180a576118096117b5565b5b828204905092915050565b7f4c656e64696e67207261746520746f6f20686967680000000000000000000000600082015250565b600061184b601583611456565b915061185682611815565b602082019050919050565b6000602082019050818103600083015261187a8161183e565b9050919050565b7f426f72726f77696e67207261746520746f6f2068696768000000000000000000600082015250565b60006118b7601783611456565b91506118c282611881565b602082019050919050565b600060208201905081810360008301526118e6816118aa565b9050919050565b7f416d6f756e74206d7573742062652067726561746572207468616e2030000000600082015250565b6000611923601d83611456565b915061192e826118ed565b602082019050919050565b6000602082019050818103600083015261195281611916565b9050919050565b7f496e73756666696369656e74206c697175696469747900000000000000000000600082015250565b600061198f601683611456565b915061199a82611959565b602082019050919050565b600060208201905081810360008301526119be81611982565b905091905056fea264697066735822122062b44b505d18a2d45be9da5af6729a04a7e647684fd3e9349d73cc3242c9494564736f6c63430008140033",
  "linkReferences": {},
  "deployedLinkReferences": {}
}