{
  "_format": "hh-sol-artifact-1",
  "contractName": "YieldPool",
  "sourceName": "contracts/YieldPool.sol",
  "abi": [
    {
      "inputs": [
        {
          "internalType": "address",
          "name": "_egg",
          "type": "address"
        },
        {
          "internalType": "address",
          "name": "_liquidityPool",
          "type": "address"
        },
        {
          "internalType": "address",
          "name": "_loanManager",
          "type": "address"
        }
      ],
      "stateMutability": "nonpayable",
      "type": "constructor"
    },
    {
      "inputs": [
        {
          "internalType": "address",
          "name": "owner",
          "type": "address"
        }
      ],
      "name": "OwnableInvalidOwner",
      "type": "error"
    },
    {
      "inputs": [
        {
          "internalType": "address",
          "name": "account",
          "type": "address"
        }
      ],
      "name": "OwnableUnauthorizedAccount",
      "type": "error"
    },
    {
      "anonymous": false,
      "inputs": [
        {
          "indexed": true,
          "internalType": "address",
          "name": "previousOwner",
          "type": "address"
        },
        {
          "indexed": true,
          "internalType": "address",
          "name": "newOwner",
          "type": "address"
        }
      ],
      "name": "OwnershipTransferred",
      "type": "event"
    },
    {
      "inputs": [
        {
          "internalType": "address",
          "name": "investor",
          "type": "address"
        }
      ],
      "name": "calculateYieldShare",
      "outputs": [
        {
          "internalType": "uint256",
          "name": "",
          "type": "uint256"
        }
      ],
      "stateMutability": "view",
      "type": "function"
    },
    {
      "inputs": [],
      "name": "claimYield",
      "outputs": [],
      "stateMutability": "nonpayable",
      "type": "function"
    },
    {
      "inputs": [
        {
          "internalType": "uint256",
          "name": "amount",
          "type": "uint256"
        }
      ],
      "name": "depositInterest",
      "outputs": [],
      "stateMutability": "nonpayable",
      "type": "function"
    },
    {
      "inputs": [],
      "name": "eggToken",
      "outputs": [
        {
          "internalType": "contract EggCoin",
          "name": "",
          "type": "address"
        }
      ],
      "stateMutability": "view",
      "type": "function"
    },
    {
      "inputs": [
        {
          "internalType": "address",
          "name": "",
          "type": "address"
        }
      ],
      "name": "investorClaims",
      "outputs": [
        {
          "internalType": "uint256",
          "name": "",
          "type": "uint256"
        }
      ],
      "stateMutability": "view",
      "type": "function"
    },
    {
      "inputs": [
        {
          "internalType": "address",
          "name": "",
          "type": "address"
        }
      ],
      "name": "investorYieldShare",
      "outputs": [
        {
          "internalType": "uint256",
          "name": "",
          "type": "uint256"
        }
      ],
      "stateMutability": "view",
      "type": "function"
    },
    {
      "inputs": [],
      "name": "liquidityPool",
      "outputs": [
        {
          "internalType": "contract LiquidityPool",
          "name": "",
          "type": "address"
        }
      ],
      "stateMutability": "view",
      "type": "function"
    },
    {
      "inputs": [],
      "name": "loanManager",
      "outputs": [
        {
          "internalType": "address",
          "name": "",
          "type": "address"
        }
      ],
      "stateMutability": "view",
      "type": "function"
    },
    {
      "inputs": [],
      "name": "owner",
      "outputs": [
        {
          "internalType": "address",
          "name": "",
          "type": "address"
        }
      ],
      "stateMutability": "view",
      "type": "function"
    },
    {
      "inputs": [],
      "name": "renounceOwnership",
      "outputs": [],
      "stateMutability": "nonpayable",
      "type": "function"
    },
    {
      "inputs": [],
      "name": "totalYield",
      "outputs": [
        {
          "internalType": "uint256",
          "name": "",
          "type": "uint256"
        }
      ],
      "stateMutability": "view",
      "type": "function"
    },
    {
      "inputs": [
        {
          "internalType": "address",
          "name": "newOwner",
          "type": "address"
        }
      ],
      "name": "transferOwnership",
      "outputs": [],
      "stateMutability": "nonpayable",
      "type": "function"
    },
    {
      "inputs": [
        {
          "internalType": "address",
          "name": "investor",
          "type": "address"
        }
      ],
      "name": "updateInvestorYield",
      "outputs": [],
      "stateMutability": "nonpayable",
      "type": "function"
    }
  ],
  "bytecode": "0x60806040523480156200001157600080fd5b5060405162001226380380620012268339818101604052810190620000379190620002b9565b33600073ffffffffffffffffffffffffffffffffffffffff168173ffffffffffffffffffffffffffffffffffffffff1603620000ad5760006040517f1e4fbdf7000000000000000000000000000000000000000000000000000000008152600401620000a4919062000326565b60405180910390fd5b620000be816200018b60201b60201c565b5082600160006101000a81548173ffffffffffffffffffffffffffffffffffffffff021916908373ffffffffffffffffffffffffffffffffffffffff16021790555081600260006101000a81548173ffffffffffffffffffffffffffffffffffffffff021916908373ffffffffffffffffffffffffffffffffffffffff16021790555080600360006101000a81548173ffffffffffffffffffffffffffffffffffffffff021916908373ffffffffffffffffffffffffffffffffffffffff16021790555050505062000343565b60008060009054906101000a900473ffffffffffffffffffffffffffffffffffffffff169050816000806101000a81548173ffffffffffffffffffffffffffffffffffffffff021916908373ffffffffffffffffffffffffffffffffffffffff1602179055508173ffffffffffffffffffffffffffffffffffffffff168173ffffffffffffffffffffffffffffffffffffffff167f8be0079c531659141344cd1fd0a4f28419497f9722a3daafe3b4186f6b6457e060405160405180910390a35050565b600080fd5b600073ffffffffffffffffffffffffffffffffffffffff82169050919050565b6000620002818262000254565b9050919050565b620002938162000274565b81146200029f57600080fd5b50565b600081519050620002b38162000288565b92915050565b600080600060608486031215620002d557620002d46200024f565b5b6000620002e586828701620002a2565b9350506020620002f886828701620002a2565b92505060406200030b86828701620002a2565b9150509250925092565b620003208162000274565b82525050565b60006020820190506200033d600083018462000315565b92915050565b610ed380620003536000396000f3fe608060405234801561001057600080fd5b50600436106100cf5760003560e01c80638da5cb5b1161008c578063b345ca6111610066578063b345ca61146101dc578063b3ccbcfe146101f8578063b59ab92c14610216578063f2fde38b14610246576100cf565b80638da5cb5b1461017057806399119d221461018e5780639b88ed7a146101ac576100cf565b806301418205146100d4578063220c5bbb146100f257806324ae038a1461010e578063406cf2291461013e578063665a11ca14610148578063715018a614610166575b600080fd5b6100dc610262565b6040516100e99190610a06565b60405180910390f35b61010c60048036038101906101079190610a52565b610268565b005b61012860048036038101906101239190610add565b6103a9565b6040516101359190610a06565b60405180910390f35b6101466103c1565b005b610150610567565b60405161015d9190610b69565b60405180910390f35b61016e61058d565b005b6101786105a1565b6040516101859190610b93565b60405180910390f35b6101966105ca565b6040516101a39190610bcf565b60405180910390f35b6101c660048036038101906101c19190610add565b6105f0565b6040516101d39190610a06565b60405180910390f35b6101f660048036038101906101f19190610add565b61064b565b005b610200610718565b60405161020d9190610b93565b60405180910390f35b610230600480360381019061022b9190610add565b61073e565b60405161023d9190610a06565b60405180910390f35b610260600480360381019061025b9190610add565b610756565b005b60045481565b6102706105a1565b73ffffffffffffffffffffffffffffffffffffffff163373ffffffffffffffffffffffffffffffffffffffff1614806102f65750600260009054906101000a900473ffffffffffffffffffffffffffffffffffffffff1673ffffffffffffffffffffffffffffffffffffffff163373ffffffffffffffffffffffffffffffffffffffff16145b8061034e5750600360009054906101000a900473ffffffffffffffffffffffffffffffffffffffff1673ffffffffffffffffffffffffffffffffffffffff163373ffffffffffffffffffffffffffffffffffffffff16145b61038d576040517f08c379a000000000000000000000000000000000000000000000000000000000815260040161038490610c47565b60405180910390fd5b806004600082825461039f9190610c96565b9250508190555050565b60066020528060005260406000206000915090505481565b6103ca3361064b565b6000600660003373ffffffffffffffffffffffffffffffffffffffff1673ffffffffffffffffffffffffffffffffffffffff16815260200190815260200160002054905060008111610451576040517f08c379a000000000000000000000000000000000000000000000000000000000815260040161044890610d16565b60405180910390fd5b6000670de0b6b3a76400006004548361046a9190610d36565b6104749190610da7565b90506000600660003373ffffffffffffffffffffffffffffffffffffffff1673ffffffffffffffffffffffffffffffffffffffff1681526020019081526020016000208190555081600460008282546104cd9190610dd8565b92505081905550600160009054906101000a900473ffffffffffffffffffffffffffffffffffffffff1673ffffffffffffffffffffffffffffffffffffffff166340c10f1933836040518363ffffffff1660e01b8152600401610531929190610e0c565b600060405180830381600087803b15801561054b57600080fd5b505af115801561055f573d6000803e3d6000fd5b505050505050565b600260009054906101000a900473ffffffffffffffffffffffffffffffffffffffff1681565b6105956107dc565b61059f6000610863565b565b60008060009054906101000a900473ffffffffffffffffffffffffffffffffffffffff16905090565b600160009054906101000a900473ffffffffffffffffffffffffffffffffffffffff1681565b60008060006105fe84610927565b92505091506000820361061657600092505050610646565b600081426106249190610dd8565b90506201518081846106369190610d36565b6106409190610da7565b93505050505b919050565b6000610656826105f0565b90506000600660008473ffffffffffffffffffffffffffffffffffffffff1673ffffffffffffffffffffffffffffffffffffffff1681526020019081526020016000205490508082111561071357600081836106b29190610dd8565b905082600660008673ffffffffffffffffffffffffffffffffffffffff1673ffffffffffffffffffffffffffffffffffffffff16815260200190815260200160002081905550806004600082825461070a9190610c96565b92505081905550505b505050565b600360009054906101000a900473ffffffffffffffffffffffffffffffffffffffff1681565b60056020528060005260406000206000915090505481565b61075e6107dc565b600073ffffffffffffffffffffffffffffffffffffffff168173ffffffffffffffffffffffffffffffffffffffff16036107d05760006040517f1e4fbdf70000000000000000000000000000000000000000000000000000000081526004016107c79190610b93565b60405180910390fd5b6107d981610863565b50565b6107e46109e5565b73ffffffffffffffffffffffffffffffffffffffff166108026105a1565b73ffffffffffffffffffffffffffffffffffffffff1614610861576108256109e5565b6040517f118cdaa70000000000000000000000000000000000000000000000000000000081526004016108589190610b93565b60405180910390fd5b565b60008060009054906101000a900473ffffffffffffffffffffffffffffffffffffffff169050816000806101000a81548173ffffffffffffffffffffffffffffffffffffffff021916908373ffffffffffffffffffffffffffffffffffffffff1602179055508173ffffffffffffffffffffffffffffffffffffffff168173ffffffffffffffffffffffffffffffffffffffff167f8be0079c531659141344cd1fd0a4f28419497f9722a3daafe3b4186f6b6457e060405160405180910390a35050565b600080600080600080600260009054906101000a900473ffffffffffffffffffffffffffffffffffffffff1673ffffffffffffffffffffffffffffffffffffffff16636f7bc9be886040518263ffffffff1660e01b815260040161098b9190610b93565b606060405180830381865afa1580156109a8573d6000803e3d6000fd5b505050506040513d601f19601f820116820180604052508101906109cc9190610e4a565b9250925092508282829550955095505050509193909250565b600033905090565b6000819050919050565b610a00816109ed565b82525050565b6000602082019050610a1b60008301846109f7565b92915050565b600080fd5b610a2f816109ed565b8114610a3a57600080fd5b50565b600081359050610a4c81610a26565b92915050565b600060208284031215610a6857610a67610a21565b5b6000610a7684828501610a3d565b91505092915050565b600073ffffffffffffffffffffffffffffffffffffffff82169050919050565b6000610aaa82610a7f565b9050919050565b610aba81610a9f565b8114610ac557600080fd5b50565b600081359050610ad781610ab1565b92915050565b600060208284031215610af357610af2610a21565b5b6000610b0184828501610ac8565b91505092915050565b6000819050919050565b6000610b2f610b2a610b2584610a7f565b610b0a565b610a7f565b9050919050565b6000610b4182610b14565b9050919050565b6000610b5382610b36565b9050919050565b610b6381610b48565b82525050565b6000602082019050610b7e6000830184610b5a565b92915050565b610b8d81610a9f565b82525050565b6000602082019050610ba86000830184610b84565b92915050565b6000610bb982610b36565b9050919050565b610bc981610bae565b82525050565b6000602082019050610be46000830184610bc0565b92915050565b600082825260208201905092915050565b7f4e6f7420617574686f72697a6564000000000000000000000000000000000000600082015250565b6000610c31600e83610bea565b9150610c3c82610bfb565b602082019050919050565b60006020820190508181036000830152610c6081610c24565b9050919050565b7f4e487b7100000000000000000000000000000000000000000000000000000000600052601160045260246000fd5b6000610ca1826109ed565b9150610cac836109ed565b9250828201905080821115610cc457610cc3610c67565b5b92915050565b7f4e6f207969656c6420746f20636c61696d000000000000000000000000000000600082015250565b6000610d00601183610bea565b9150610d0b82610cca565b602082019050919050565b60006020820190508181036000830152610d2f81610cf3565b9050919050565b6000610d41826109ed565b9150610d4c836109ed565b9250828202610d5a816109ed565b91508282048414831517610d7157610d70610c67565b5b5092915050565b7f4e487b7100000000000000000000000000000000000000000000000000000000600052601260045260246000fd5b6000610db2826109ed565b9150610dbd836109ed565b925082610dcd57610dcc610d78565b5b828204905092915050565b6000610de3826109ed565b9150610dee836109ed565b9250828203905081811115610e0657610e05610c67565b5b92915050565b6000604082019050610e216000830185610b84565b610e2e60208301846109f7565b9392505050565b600081519050610e4481610a26565b92915050565b600080600060608486031215610e6357610e62610a21565b5b6000610e7186828701610e35565b9350506020610e8286828701610e35565b9250506040610e9386828701610e35565b915050925092509256fea26469706673582212204124939e1dc916eccc8b50fc08239eca5bf4a34105a2c13f4c6ca18c651c9e8064736f6c63430008140033",
  "linkReferences": {},
  "deployedLinkReferences": {}
}