{
  "_format": "hh-sol-artifact-1",
  "contractName": "LoanManager",
  "sourceName": "contracts/LoanManager.sol",
  "abi": [
    {
      "inputs": [
        {
          "internalType": "address",
          "name": "_egg",
          "type": "address"
        },
        {
          "internalType": "address",
          "name": "_yieldPool",
          "type": "address"
        },
        {
          "internalType": "address",
          "name": "developer",
          "type": "address"
        }
      ],
      "stateMutability": "nonpayable",
      "type": "constructor"
    },
    {
      "inputs": [],
      "name": "AccessControlBadConfirmation",
      "type": "error"
    },
    {
      "inputs": [
        {
          "internalType": "address",
          "name": "account",
          "type": "address"
        },
        {
          "internalType": "bytes32",
          "name": "neededRole",
          "type": "bytes32"
        }
      ],
      "name": "AccessControlUnauthorizedAccount",
      "type": "error"
    },
    {
      "anonymous": false,
      "inputs": [
        {
          "indexed": true,
          "internalType": "bytes32",
          "name": "role",
          "type": "bytes32"
        },
        {
          "indexed": true,
          "internalType": "bytes32",
          "name": "previousAdminRole",
          "type": "bytes32"
        },
        {
          "indexed": true,
          "internalType": "bytes32",
          "name": "newAdminRole",
          "type": "bytes32"
        }
      ],
      "name": "RoleAdminChanged",
      "type": "event"
    },
    {
      "anonymous": false,
      "inputs": [
        {
          "indexed": true,
          "internalType": "bytes32",
          "name": "role",
          "type": "bytes32"
        },
        {
          "indexed": true,
          "internalType": "address",
          "name": "account",
          "type": "address"
        },
        {
          "indexed": true,
          "internalType": "address",
          "name": "sender",
          "type": "address"
        }
      ],
      "name": "RoleGranted",
      "type": "event"
    },
    {
      "anonymous": false,
      "inputs": [
        {
          "indexed": true,
          "internalType": "bytes32",
          "name": "role",
          "type": "bytes32"
        },
        {
          "indexed": true,
          "internalType": "address",
          "name": "account",
          "type": "address"
        },
        {
          "indexed": true,
          "internalType": "address",
          "name": "sender",
          "type": "address"
        }
      ],
      "name": "RoleRevoked",
      "type": "event"
    },
    {
      "inputs": [],
      "name": "DEFAULT_ADMIN_ROLE",
      "outputs": [
        {
          "internalType": "bytes32",
          "name": "",
          "type": "bytes32"
        }
      ],
      "stateMutability": "view",
      "type": "function"
    },
    {
      "inputs": [],
      "name": "DEVELOPER_ROLE",
      "outputs": [
        {
          "internalType": "bytes32",
          "name": "",
          "type": "bytes32"
        }
      ],
      "stateMutability": "view",
      "type": "function"
    },
    {
      "inputs": [],
      "name": "INTEREST_RATE",
      "outputs": [
        {
          "internalType": "uint256",
          "name": "",
          "type": "uint256"
        }
      ],
      "stateMutability": "view",
      "type": "function"
    },
    {
      "inputs": [],
      "name": "eggToken",
      "outputs": [
        {
          "internalType": "contract EggCoin",
          "name": "",
          "type": "address"
        }
      ],
      "stateMutability": "view",
      "type": "function"
    },
    {
      "inputs": [
        {
          "internalType": "address",
          "name": "",
          "type": "address"
        }
      ],
      "name": "farmers",
      "outputs": [
        {
          "internalType": "bool",
          "name": "isRegistered",
          "type": "bool"
        },
        {
          "internalType": "uint256",
          "name": "creditScore",
          "type": "uint256"
        },
        {
          "internalType": "uint256",
          "name": "lastLoanTimestamp",
          "type": "uint256"
        }
      ],
      "stateMutability": "view",
      "type": "function"
    },
    {
      "inputs": [
        {
          "internalType": "bytes32",
          "name": "role",
          "type": "bytes32"
        }
      ],
      "name": "getRoleAdmin",
      "outputs": [
        {
          "internalType": "bytes32",
          "name": "",
          "type": "bytes32"
        }
      ],
      "stateMutability": "view",
      "type": "function"
    },
    {
      "inputs": [
        {
          "internalType": "bytes32",
          "name": "role",
          "type": "bytes32"
        },
        {
          "internalType": "address",
          "name": "account",
          "type": "address"
        }
      ],
      "name": "grantRole",
      "outputs": [],
      "stateMutability": "nonpayable",
      "type": "function"
    },
    {
      "inputs": [
        {
          "internalType": "bytes32",
          "name": "role",
          "type": "bytes32"
        },
        {
          "internalType": "address",
          "name": "account",
          "type": "address"
        }
      ],
      "name": "hasRole",
      "outputs": [
        {
          "internalType": "bool",
          "name": "",
          "type": "bool"
        }
      ],
      "stateMutability": "view",
      "type": "function"
    },
    {
      "inputs": [],
      "name": "liquidityPool",
      "outputs": [
        {
          "internalType": "address",
          "name": "",
          "type": "address"
        }
      ],
      "stateMutability": "view",
      "type": "function"
    },
    {
      "inputs": [
        {
          "internalType": "uint256",
          "name": "",
          "type": "uint256"
        }
      ],
      "name": "loans",
      "outputs": [
        {
          "internalType": "address",
          "name": "farmer",
          "type": "address"
        },
        {
          "internalType": "uint256",
          "name": "amount",
          "type": "uint256"
        },
        {
          "internalType": "uint256",
          "name": "interestRate",
          "type": "uint256"
        },
        {
          "internalType": "uint256",
          "name": "repaymentDeadline",
          "type": "uint256"
        },
        {
          "internalType": "bool",
          "name": "isRepaid",
          "type": "bool"
        }
      ],
      "stateMutability": "view",
      "type": "function"
    },
    {
      "inputs": [
        {
          "internalType": "address",
          "name": "farmer",
          "type": "address"
        },
        {
          "internalType": "uint256",
          "name": "eggCount",
          "type": "uint256"
        }
      ],
      "name": "logEggProduction",
      "outputs": [],
      "stateMutability": "nonpayable",
      "type": "function"
    },
    {
      "inputs": [
        {
          "internalType": "address",
          "name": "farmer",
          "type": "address"
        },
        {
          "internalType": "uint256",
          "name": "initialCreditScore",
          "type": "uint256"
        }
      ],
      "name": "registerFarmer",
      "outputs": [],
      "stateMutability": "nonpayable",
      "type": "function"
    },
    {
      "inputs": [
        {
          "internalType": "bytes32",
          "name": "role",
          "type": "bytes32"
        },
        {
          "internalType": "address",
          "name": "callerConfirmation",
          "type": "address"
        }
      ],
      "name": "renounceRole",
      "outputs": [],
      "stateMutability": "nonpayable",
      "type": "function"
    },
    {
      "inputs": [
        {
          "internalType": "uint256",
          "name": "loanId",
          "type": "uint256"
        }
      ],
      "name": "repayLoan",
      "outputs": [],
      "stateMutability": "nonpayable",
      "type": "function"
    },
    {
      "inputs": [
        {
          "internalType": "uint256",
          "name": "amount",
          "type": "uint256"
        }
      ],
      "name": "requestLoan",
      "outputs": [],
      "stateMutability": "nonpayable",
      "type": "function"
    },
    {
      "inputs": [
        {
          "internalType": "bytes32",
          "name": "role",
          "type": "bytes32"
        },
        {
          "internalType": "address",
          "name": "account",
          "type": "address"
        }
      ],
      "name": "revokeRole",
      "outputs": [],
      "stateMutability": "nonpayable",
      "type": "function"
    },
    {
      "inputs": [
        {
          "internalType": "address",
          "name": "_liquidityPool",
          "type": "address"
        }
      ],
      "name": "setLiquidityPool",
      "outputs": [],
      "stateMutability": "nonpayable",
      "type": "function"
    },
    {
      "inputs": [
        {
          "internalType": "address",
          "name": "_yieldPool",
          "type": "address"
        }
      ],
      "name": "setYieldPool",
      "outputs": [],
      "stateMutability": "nonpayable",
      "type": "function"
    },
    {
      "inputs": [
        {
          "internalType": "bytes4",
          "name": "interfaceId",
          "type": "bytes4"
        }
      ],
      "name": "supportsInterface",
      "outputs": [
        {
          "internalType": "bool",
          "name": "",
          "type": "bool"
        }
      ],
      "stateMutability": "view",
      "type": "function"
    },
    {
      "inputs": [],
      "name": "yieldPool",
      "outputs": [
        {
          "internalType": "address",
          "name": "",
          "type": "address"
        }
      ],
      "stateMutability": "view",
      "type": "function"
    }
  ],
  "bytecode": "0x60806040523480156200001157600080fd5b50604051620021d8380380620021d88339818101604052810190620000379190620002ea565b82600160006101000a81548173ffffffffffffffffffffffffffffffffffffffff021916908373ffffffffffffffffffffffffffffffffffffffff16021790555081600360006101000a81548173ffffffffffffffffffffffffffffffffffffffff021916908373ffffffffffffffffffffffffffffffffffffffff160217905550620000ce6000801b826200010b60201b60201c565b50620001017f4504b9dfd7400a1522f49a8b4a100552da9236849581fd59b7363eb48c6a474c826200010b60201b60201c565b5050505062000346565b60006200011f83836200020e60201b60201c565b6200020357600160008085815260200190815260200160002060000160008473ffffffffffffffffffffffffffffffffffffffff1673ffffffffffffffffffffffffffffffffffffffff16815260200190815260200160002060006101000a81548160ff0219169083151502179055506200019f6200027860201b60201c565b73ffffffffffffffffffffffffffffffffffffffff168273ffffffffffffffffffffffffffffffffffffffff16847f2f8788117e7eff1d82e926ec794901d17c78024a50270940304540a733656f0d60405160405180910390a46001905062000208565b600090505b92915050565b600080600084815260200190815260200160002060000160008373ffffffffffffffffffffffffffffffffffffffff1673ffffffffffffffffffffffffffffffffffffffff16815260200190815260200160002060009054906101000a900460ff16905092915050565b600033905090565b600080fd5b600073ffffffffffffffffffffffffffffffffffffffff82169050919050565b6000620002b28262000285565b9050919050565b620002c481620002a5565b8114620002d057600080fd5b50565b600081519050620002e481620002b9565b92915050565b60008060006060848603121562000306576200030562000280565b5b60006200031686828701620002d3565b93505060206200032986828701620002d3565b92505060406200033c86828701620002d3565b9150509250925092565b611e8280620003566000396000f3fe608060405234801561001057600080fd5b506004361061012c5760003560e01c80636c53236b116100ad57806399119d221161007157806399119d221461032f578063a217fddf1461034d578063ab7b1c891461036b578063d547741f14610387578063e1ec3c68146103a35761012c565b80636c53236b1461028b5780638d5d3429146102a75780638f188dd4146102c35780639103a0e0146102e157806391d14854146102ff5761012c565b806336568abe116100f457806336568abe146101e5578063401b2168146102015780635b72a33a146102335780635b9f9ebb14610251578063665a11ca1461026d5761012c565b8063016fe34514610131578063018770201461014d57806301ffc9a714610169578063248a9ca3146101995780632f2ff15d146101c9575b600080fd5b61014b600480360381019061014691906114e8565b6103d7565b005b61016760048036038101906101629190611528565b610507565b005b610183600480360381019061017e91906115ad565b610576565b60405161019091906115f5565b60405180910390f35b6101b360048036038101906101ae9190611646565b6105f0565b6040516101c09190611682565b60405180910390f35b6101e360048036038101906101de919061169d565b61060f565b005b6101ff60048036038101906101fa919061169d565b610631565b005b61021b60048036038101906102169190611528565b6106ac565b60405161022a939291906116ec565b60405180910390f35b61023b6106e3565b6040516102489190611723565b60405180910390f35b61026b600480360381019061026691906114e8565b6106e8565b005b61027561080f565b604051610282919061174d565b60405180910390f35b6102a560048036038101906102a09190611528565b610835565b005b6102c160048036038101906102bc9190611768565b6108a4565b005b6102cb610bf2565b6040516102d8919061174d565b60405180910390f35b6102e9610c18565b6040516102f69190611682565b60405180910390f35b6103196004803603810190610314919061169d565b610c3c565b60405161032691906115f5565b60405180910390f35b610337610ca6565b60405161034491906117f4565b60405180910390f35b610355610ccc565b6040516103629190611682565b60405180910390f35b61038560048036038101906103809190611768565b610cd3565b005b6103a1600480360381019061039c919061169d565b611096565b005b6103bd60048036038101906103b89190611768565b6110b8565b6040516103ce95949392919061180f565b60405180910390f35b7f4504b9dfd7400a1522f49a8b4a100552da9236849581fd59b7363eb48c6a474c6104018161112b565b6040518060800160405280600115158152602001838152602001600067ffffffffffffffff81111561043657610435611862565b5b6040519080825280602002602001820160405280156104645781602001602082028036833780820191505090505b5081526020016000815250600460008573ffffffffffffffffffffffffffffffffffffffff1673ffffffffffffffffffffffffffffffffffffffff16815260200190815260200160002060008201518160000160006101000a81548160ff0219169083151502179055506020820151816001015560408201518160020190805190602001906104f49291906113e5565b5060608201518160030155905050505050565b7f4504b9dfd7400a1522f49a8b4a100552da9236849581fd59b7363eb48c6a474c6105318161112b565b81600260006101000a81548173ffffffffffffffffffffffffffffffffffffffff021916908373ffffffffffffffffffffffffffffffffffffffff1602179055505050565b60007f7965db0b000000000000000000000000000000000000000000000000000000007bffffffffffffffffffffffffffffffffffffffffffffffffffffffff1916827bffffffffffffffffffffffffffffffffffffffffffffffffffffffff191614806105e957506105e88261113f565b5b9050919050565b6000806000838152602001908152602001600020600101549050919050565b610618826105f0565b6106218161112b565b61062b83836111a9565b50505050565b61063961129a565b73ffffffffffffffffffffffffffffffffffffffff168173ffffffffffffffffffffffffffffffffffffffff161461069d576040517f6697b23200000000000000000000000000000000000000000000000000000000815260040160405180910390fd5b6106a782826112a2565b505050565b60046020528060005260406000206000915090508060000160009054906101000a900460ff16908060010154908060030154905083565b600581565b7f4504b9dfd7400a1522f49a8b4a100552da9236849581fd59b7363eb48c6a474c6107128161112b565b600460008473ffffffffffffffffffffffffffffffffffffffff1673ffffffffffffffffffffffffffffffffffffffff16815260200190815260200160002060000160009054906101000a900460ff166107a1576040517f08c379a0000000000000000000000000000000000000000000000000000000008152600401610798906118ee565b60405180910390fd5b600460008473ffffffffffffffffffffffffffffffffffffffff1673ffffffffffffffffffffffffffffffffffffffff168152602001908152602001600020600201829080600181540180825580915050600190039060005260206000200160009091909190915055505050565b600260009054906101000a900473ffffffffffffffffffffffffffffffffffffffff1681565b7f4504b9dfd7400a1522f49a8b4a100552da9236849581fd59b7363eb48c6a474c61085f8161112b565b81600360006101000a81548173ffffffffffffffffffffffffffffffffffffffff021916908373ffffffffffffffffffffffffffffffffffffffff1602179055505050565b6000600460003373ffffffffffffffffffffffffffffffffffffffff1673ffffffffffffffffffffffffffffffffffffffff16815260200190815260200160002090508060000160009054906101000a900460ff16610938576040517f08c379a000000000000000000000000000000000000000000000000000000000815260040161092f906118ee565b60405180910390fd5b600781600201805490501015610983576040517f08c379a000000000000000000000000000000000000000000000000000000000815260040161097a9061195a565b60405180910390fd5b6032816001015410156109cb576040517f08c379a00000000000000000000000000000000000000000000000000000000081526004016109c2906119c6565b60405180910390fd5b62278d008160030154426109df9190611a15565b11610a1f576040517f08c379a0000000000000000000000000000000000000000000000000000000008152600401610a1690611a95565b60405180910390fd5b60056040518060a001604052803373ffffffffffffffffffffffffffffffffffffffff168152602001848152602001600581526020016276a70042610a649190611ab5565b815260200160001515815250908060018154018082558091505060019003906000526020600020906005020160009091909190915060008201518160000160006101000a81548173ffffffffffffffffffffffffffffffffffffffff021916908373ffffffffffffffffffffffffffffffffffffffff16021790555060208201518160010155604082015181600201556060820151816003015560808201518160040160006101000a81548160ff0219169083151502179055505050600160009054906101000a900473ffffffffffffffffffffffffffffffffffffffff1673ffffffffffffffffffffffffffffffffffffffff166323b872dd600260009054906101000a900473ffffffffffffffffffffffffffffffffffffffff1633856040518463ffffffff1660e01b8152600401610ba193929190611ae9565b6020604051808303816000875af1158015610bc0573d6000803e3d6000fd5b505050506040513d601f19601f82011682018060405250810190610be49190611b4c565b504281600301819055505050565b600360009054906101000a900473ffffffffffffffffffffffffffffffffffffffff1681565b7f4504b9dfd7400a1522f49a8b4a100552da9236849581fd59b7363eb48c6a474c81565b600080600084815260200190815260200160002060000160008373ffffffffffffffffffffffffffffffffffffffff1673ffffffffffffffffffffffffffffffffffffffff16815260200190815260200160002060009054906101000a900460ff16905092915050565b600160009054906101000a900473ffffffffffffffffffffffffffffffffffffffff1681565b6000801b81565b6005805490508110610d1a576040517f08c379a0000000000000000000000000000000000000000000000000000000008152600401610d1190611bc5565b60405180910390fd5b600060058281548110610d3057610d2f611be5565b5b906000526020600020906005020190503373ffffffffffffffffffffffffffffffffffffffff168160000160009054906101000a900473ffffffffffffffffffffffffffffffffffffffff1673ffffffffffffffffffffffffffffffffffffffff1614610dd2576040517f08c379a0000000000000000000000000000000000000000000000000000000008152600401610dc990611c60565b60405180910390fd5b8060040160009054906101000a900460ff1615610e24576040517f08c379a0000000000000000000000000000000000000000000000000000000008152600401610e1b90611ccc565b60405180910390fd5b8060030154421115610e6b576040517f08c379a0000000000000000000000000000000000000000000000000000000008152600401610e6290611d38565b60405180910390fd5b600160009054906101000a900473ffffffffffffffffffffffffffffffffffffffff1673ffffffffffffffffffffffffffffffffffffffff16639dc29fac3383600101546040518363ffffffff1660e01b8152600401610ecc929190611d58565b600060405180830381600087803b158015610ee657600080fd5b505af1158015610efa573d6000803e3d6000fd5b505050506000606482600201548360010154610f169190611d81565b610f209190611df2565b9050600160009054906101000a900473ffffffffffffffffffffffffffffffffffffffff1673ffffffffffffffffffffffffffffffffffffffff166323b872dd33600360009054906101000a900473ffffffffffffffffffffffffffffffffffffffff16846040518463ffffffff1660e01b8152600401610fa393929190611ae9565b6020604051808303816000875af1158015610fc2573d6000803e3d6000fd5b505050506040513d601f19601f82011682018060405250810190610fe69190611b4c565b50600360009054906101000a900473ffffffffffffffffffffffffffffffffffffffff1673ffffffffffffffffffffffffffffffffffffffff1663220c5bbb826040518263ffffffff1660e01b81526004016110429190611723565b600060405180830381600087803b15801561105c57600080fd5b505af1158015611070573d6000803e3d6000fd5b5050505060018260040160006101000a81548160ff021916908315150217905550505050565b61109f826105f0565b6110a88161112b565b6110b283836112a2565b50505050565b600581815481106110c857600080fd5b90600052602060002090600502016000915090508060000160009054906101000a900473ffffffffffffffffffffffffffffffffffffffff16908060010154908060020154908060030154908060040160009054906101000a900460ff16905085565b61113c8161113761129a565b611394565b50565b60007f01ffc9a7000000000000000000000000000000000000000000000000000000007bffffffffffffffffffffffffffffffffffffffffffffffffffffffff1916827bffffffffffffffffffffffffffffffffffffffffffffffffffffffff1916149050919050565b60006111b58383610c3c565b61128f57600160008085815260200190815260200160002060000160008473ffffffffffffffffffffffffffffffffffffffff1673ffffffffffffffffffffffffffffffffffffffff16815260200190815260200160002060006101000a81548160ff02191690831515021790555061122c61129a565b73ffffffffffffffffffffffffffffffffffffffff168273ffffffffffffffffffffffffffffffffffffffff16847f2f8788117e7eff1d82e926ec794901d17c78024a50270940304540a733656f0d60405160405180910390a460019050611294565b600090505b92915050565b600033905090565b60006112ae8383610c3c565b1561138957600080600085815260200190815260200160002060000160008473ffffffffffffffffffffffffffffffffffffffff1673ffffffffffffffffffffffffffffffffffffffff16815260200190815260200160002060006101000a81548160ff02191690831515021790555061132661129a565b73ffffffffffffffffffffffffffffffffffffffff168273ffffffffffffffffffffffffffffffffffffffff16847ff6391f5c32d9c69d2a47ea670b442974b53935d1edc7fd64eb21e047a839171b60405160405180910390a46001905061138e565b600090505b92915050565b61139e8282610c3c565b6113e15780826040517fe2517d3f0000000000000000000000000000000000000000000000000000000081526004016113d8929190611e23565b60405180910390fd5b5050565b828054828255906000526020600020908101928215611421579160200282015b82811115611420578251825591602001919060010190611405565b5b50905061142e9190611432565b5090565b5b8082111561144b576000816000905550600101611433565b5090565b600080fd5b600073ffffffffffffffffffffffffffffffffffffffff82169050919050565b600061147f82611454565b9050919050565b61148f81611474565b811461149a57600080fd5b50565b6000813590506114ac81611486565b92915050565b6000819050919050565b6114c5816114b2565b81146114d057600080fd5b50565b6000813590506114e2816114bc565b92915050565b600080604083850312156114ff576114fe61144f565b5b600061150d8582860161149d565b925050602061151e858286016114d3565b9150509250929050565b60006020828403121561153e5761153d61144f565b5b600061154c8482850161149d565b91505092915050565b60007fffffffff0000000000000000000000000000000000000000000000000000000082169050919050565b61158a81611555565b811461159557600080fd5b50565b6000813590506115a781611581565b92915050565b6000602082840312156115c3576115c261144f565b5b60006115d184828501611598565b91505092915050565b60008115159050919050565b6115ef816115da565b82525050565b600060208201905061160a60008301846115e6565b92915050565b6000819050919050565b61162381611610565b811461162e57600080fd5b50565b6000813590506116408161161a565b92915050565b60006020828403121561165c5761165b61144f565b5b600061166a84828501611631565b91505092915050565b61167c81611610565b82525050565b60006020820190506116976000830184611673565b92915050565b600080604083850312156116b4576116b361144f565b5b60006116c285828601611631565b92505060206116d38582860161149d565b9150509250929050565b6116e6816114b2565b82525050565b600060608201905061170160008301866115e6565b61170e60208301856116dd565b61171b60408301846116dd565b949350505050565b600060208201905061173860008301846116dd565b92915050565b61174781611474565b82525050565b6000602082019050611762600083018461173e565b92915050565b60006020828403121561177e5761177d61144f565b5b600061178c848285016114d3565b91505092915050565b6000819050919050565b60006117ba6117b56117b084611454565b611795565b611454565b9050919050565b60006117cc8261179f565b9050919050565b60006117de826117c1565b9050919050565b6117ee816117d3565b82525050565b600060208201905061180960008301846117e5565b92915050565b600060a082019050611824600083018861173e565b61183160208301876116dd565b61183e60408301866116dd565b61184b60608301856116dd565b61185860808301846115e6565b9695505050505050565b7f4e487b7100000000000000000000000000000000000000000000000000000000600052604160045260246000fd5b600082825260208201905092915050565b7f4661726d6572206e6f7420726567697374657265640000000000000000000000600082015250565b60006118d8601583611891565b91506118e3826118a2565b602082019050919050565b60006020820190508181036000830152611907816118cb565b9050919050565b7f496e73756666696369656e7420656767206c6f67730000000000000000000000600082015250565b6000611944601583611891565b915061194f8261190e565b602082019050919050565b6000602082019050818103600083015261197381611937565b9050919050565b7f4372656469742073636f726520746f6f206c6f77000000000000000000000000600082015250565b60006119b0601483611891565b91506119bb8261197a565b602082019050919050565b600060208201905081810360008301526119df816119a3565b9050919050565b7f4e487b7100000000000000000000000000000000000000000000000000000000600052601160045260246000fd5b6000611a20826114b2565b9150611a2b836114b2565b9250828203905081811115611a4357611a426119e6565b5b92915050565b7f546f6f20736f6f6e2073696e6365206c617374206c6f616e0000000000000000600082015250565b6000611a7f601883611891565b9150611a8a82611a49565b602082019050919050565b60006020820190508181036000830152611aae81611a72565b9050919050565b6000611ac0826114b2565b9150611acb836114b2565b9250828201905080821115611ae357611ae26119e6565b5b92915050565b6000606082019050611afe600083018661173e565b611b0b602083018561173e565b611b1860408301846116dd565b949350505050565b611b29816115da565b8114611b3457600080fd5b50565b600081519050611b4681611b20565b92915050565b600060208284031215611b6257611b6161144f565b5b6000611b7084828501611b37565b91505092915050565b7f496e76616c6964206c6f616e2049440000000000000000000000000000000000600082015250565b6000611baf600f83611891565b9150611bba82611b79565b602082019050919050565b60006020820190508181036000830152611bde81611ba2565b9050919050565b7f4e487b7100000000000000000000000000000000000000000000000000000000600052603260045260246000fd5b7f4e6f7420796f7572206c6f616e00000000000000000000000000000000000000600082015250565b6000611c4a600d83611891565b9150611c5582611c14565b602082019050919050565b60006020820190508181036000830152611c7981611c3d565b9050919050565b7f4c6f616e20616c72656164792072657061696400000000000000000000000000600082015250565b6000611cb6601383611891565b9150611cc182611c80565b602082019050919050565b60006020820190508181036000830152611ce581611ca9565b9050919050565b7f4c6f616e206f7665726475650000000000000000000000000000000000000000600082015250565b6000611d22600c83611891565b9150611d2d82611cec565b602082019050919050565b60006020820190508181036000830152611d5181611d15565b9050919050565b6000604082019050611d6d600083018561173e565b611d7a60208301846116dd565b9392505050565b6000611d8c826114b2565b9150611d97836114b2565b9250828202611da5816114b2565b91508282048414831517611dbc57611dbb6119e6565b5b5092915050565b7f4e487b7100000000000000000000000000000000000000000000000000000000600052601260045260246000fd5b6000611dfd826114b2565b9150611e08836114b2565b925082611e1857611e17611dc3565b5b828204905092915050565b6000604082019050611e38600083018561173e565b611e456020830184611673565b939250505056fea2646970667358221220e8535b828d83b4953be16dabc111da9c0015f5de1bdea30323b426fb2a01696564736f6c63430008140033",
  "linkReferences": {},
  "deployedLinkReferences": {}
}