{
  "_format": "hh-sol-artifact-1",
  "contractName": "StakingPool",
  "sourceName": "contracts/StakingPool.sol",
  "abi": [
    {
      "inputs": [
        {
          "internalType": "address",
          "name": "_eggToken",
          "type": "address"
        }
      ],
      "stateMutability": "nonpayable",
      "type": "constructor"
    },
    {
      "inputs": [
        {
          "internalType": "address",
          "name": "owner",
          "type": "address"
        }
      ],
      "name": "OwnableInvalidOwner",
      "type": "error"
    },
    {
      "inputs": [
        {
          "internalType": "address",
          "name": "account",
          "type": "address"
        }
      ],
      "name": "OwnableUnauthorizedAccount",
      "type": "error"
    },
    {
      "anonymous": false,
      "inputs": [
        {
          "indexed": true,
          "internalType": "address",
          "name": "previousOwner",
          "type": "address"
        },
        {
          "indexed": true,
          "internalType": "address",
          "name": "newOwner",
          "type": "address"
        }
      ],
      "name": "OwnershipTransferred",
      "type": "event"
    },
    {
      "anonymous": false,
      "inputs": [
        {
          "indexed": true,
          "internalType": "address",
          "name": "user",
          "type": "address"
        },
        {
          "indexed": false,
          "internalType": "uint256",
          "name": "amount",
          "type": "uint256"
        }
      ],
      "name": "Staked",
      "type": "event"
    },
    {
      "anonymous": false,
      "inputs": [
        {
          "indexed": true,
          "internalType": "address",
          "name": "user",
          "type": "address"
        },
        {
          "indexed": false,
          "internalType": "uint256",
          "name": "amount",
          "type": "uint256"
        },
        {
          "indexed": false,
          "internalType": "uint256",
          "name": "reward",
          "type": "uint256"
        }
      ],
      "name": "Unstaked",
      "type": "event"
    },
    {
      "inputs": [
        {
          "internalType": "address",
          "name": "user",
          "type": "address"
        }
      ],
      "name": "calculateReward",
      "outputs": [
        {
          "internalType": "uint256",
          "name": "",
          "type": "uint256"
        }
      ],
      "stateMutability": "view",
      "type": "function"
    },
    {
      "inputs": [],
      "name": "eggToken",
      "outputs": [
        {
          "internalType": "contract IERC20",
          "name": "",
          "type": "address"
        }
      ],
      "stateMutability": "view",
      "type": "function"
    },
    {
      "inputs": [],
      "name": "owner",
      "outputs": [
        {
          "internalType": "address",
          "name": "",
          "type": "address"
        }
      ],
      "stateMutability": "view",
      "type": "function"
    },
    {
      "inputs": [],
      "name": "renounceOwnership",
      "outputs": [],
      "stateMutability": "nonpayable",
      "type": "function"
    },
    {
      "inputs": [],
      "name": "rewardRate",
      "outputs": [
        {
          "internalType": "uint256",
          "name": "",
          "type": "uint256"
        }
      ],
      "stateMutability": "view",
      "type": "function"
    },
    {
      "inputs": [
        {
          "internalType": "uint256",
          "name": "_rate",
          "type": "uint256"
        }
      ],
      "name": "setRewardRate",
      "outputs": [],
      "stateMutability": "nonpayable",
      "type": "function"
    },
    {
      "inputs": [
        {
          "internalType": "uint256",
          "name": "amount",
          "type": "uint256"
        }
      ],
      "name": "stake",
      "outputs": [],
      "stateMutability": "nonpayable",
      "type": "function"
    },
    {
      "inputs": [
        {
          "internalType": "address",
          "name": "",
          "type": "address"
        }
      ],
      "name": "stakes",
      "outputs": [
        {
          "internalType": "uint256",
          "name": "amount",
          "type": "uint256"
        },
        {
          "internalType": "uint256",
          "name": "startTime",
          "type": "uint256"
        }
      ],
      "stateMutability": "view",
      "type": "function"
    },
    {
      "inputs": [],
      "name": "totalStaked",
      "outputs": [
        {
          "internalType": "uint256",
          "name": "",
          "type": "uint256"
        }
      ],
      "stateMutability": "view",
      "type": "function"
    },
    {
      "inputs": [
        {
          "internalType": "address",
          "name": "newOwner",
          "type": "address"
        }
      ],
      "name": "transferOwnership",
      "outputs": [],
      "stateMutability": "nonpayable",
      "type": "function"
    },
    {
      "inputs": [],
      "name": "unstake",
      "outputs": [],
      "stateMutability": "nonpayable",
      "type": "function"
    }
  ],
  "bytecode": "0x60a0604052600a6002553480156200001657600080fd5b506040516200147e3803806200147e83398181016040528101906200003c9190620002a6565b33600073ffffffffffffffffffffffffffffffffffffffff168173ffffffffffffffffffffffffffffffffffffffff1603620000b25760006040517f1e4fbdf7000000000000000000000000000000000000000000000000000000008152600401620000a99190620002e9565b60405180910390fd5b620000c3816200017860201b60201c565b5060018081905550600073ffffffffffffffffffffffffffffffffffffffff168173ffffffffffffffffffffffffffffffffffffffff16036200013d576040517f08c379a0000000000000000000000000000000000000000000000000000000008152600401620001349062000367565b60405180910390fd5b8073ffffffffffffffffffffffffffffffffffffffff1660808173ffffffffffffffffffffffffffffffffffffffff16815250505062000389565b60008060009054906101000a900473ffffffffffffffffffffffffffffffffffffffff169050816000806101000a81548173ffffffffffffffffffffffffffffffffffffffff021916908373ffffffffffffffffffffffffffffffffffffffff1602179055508173ffffffffffffffffffffffffffffffffffffffff168173ffffffffffffffffffffffffffffffffffffffff167f8be0079c531659141344cd1fd0a4f28419497f9722a3daafe3b4186f6b6457e060405160405180910390a35050565b600080fd5b600073ffffffffffffffffffffffffffffffffffffffff82169050919050565b60006200026e8262000241565b9050919050565b620002808162000261565b81146200028c57600080fd5b50565b600081519050620002a08162000275565b92915050565b600060208284031215620002bf57620002be6200023c565b5b6000620002cf848285016200028f565b91505092915050565b620002e38162000261565b82525050565b6000602082019050620003006000830184620002d8565b92915050565b600082825260208201905092915050565b7f496e76616c696420746f6b656e20616464726573730000000000000000000000600082015250565b60006200034f60158362000306565b91506200035c8262000317565b602082019050919050565b60006020820190508181036000830152620003828162000340565b9050919050565b6080516110cb620003b36000396000818161039b01528181610521015261062b01526110cb6000f3fe608060405234801561001057600080fd5b50600436106100a95760003560e01c80638da5cb5b116100715780638da5cb5b1461012f57806399119d221461014d5780639e447fc61461016b578063a694fc3a14610187578063d82e3962146101a3578063f2fde38b146101d3576100a9565b806316934fc4146100ae5780632def6620146100df578063715018a6146100e95780637b0a47ee146100f3578063817b1cd214610111575b600080fd5b6100c860048036038101906100c39190610ae3565b6101ef565b6040516100d6929190610b29565b60405180910390f35b6100e7610213565b005b6100f16104d6565b005b6100fb6104ea565b6040516101089190610b52565b60405180910390f35b6101196104f0565b6040516101269190610b52565b60405180910390f35b6101376104f6565b6040516101449190610b7c565b60405180910390f35b61015561051f565b6040516101629190610bf6565b60405180910390f35b61018560048036038101906101809190610c3d565b610543565b005b6101a1600480360381019061019c9190610c3d565b610599565b005b6101bd60048036038101906101b89190610ae3565b6107e4565b6040516101ca9190610b52565b60405180910390f35b6101ed60048036038101906101e89190610ae3565b6108a7565b005b60046020528060005260406000206000915090508060000154908060010154905082565b600260015403610258576040517f08c379a000000000000000000000000000000000000000000000000000000000815260040161024f90610cc7565b60405180910390fd5b60026001819055506000600460003373ffffffffffffffffffffffffffffffffffffffff1673ffffffffffffffffffffffffffffffffffffffff1681526020019081526020016000206040518060400160405290816000820154815260200160018201548152505090506000816000015111610309576040517f08c379a000000000000000000000000000000000000000000000000000000000815260040161030090610d33565b60405180910390fd5b6000610314336107e4565b905060008183600001516103289190610d82565b90508260000151600360008282546103409190610db6565b92505081905550600460003373ffffffffffffffffffffffffffffffffffffffff1673ffffffffffffffffffffffffffffffffffffffff168152602001908152602001600020600080820160009055600182016000905550507f000000000000000000000000000000000000000000000000000000000000000073ffffffffffffffffffffffffffffffffffffffff1663a9059cbb33836040518363ffffffff1660e01b81526004016103f4929190610dea565b6020604051808303816000875af1158015610413573d6000803e3d6000fd5b505050506040513d601f19601f820116820180604052508101906104379190610e4b565b610476576040517f08c379a000000000000000000000000000000000000000000000000000000000815260040161046d90610ec4565b60405180910390fd5b3373ffffffffffffffffffffffffffffffffffffffff167f7fc4727e062e336010f2c282598ef5f14facb3de68cf8195c2f23e1454b2b74e8460000151846040516104c2929190610b29565b60405180910390a250505060018081905550565b6104de61092d565b6104e860006109b4565b565b60025481565b60035481565b60008060009054906101000a900473ffffffffffffffffffffffffffffffffffffffff16905090565b7f000000000000000000000000000000000000000000000000000000000000000081565b61054b61092d565b606481111561058f576040517f08c379a000000000000000000000000000000000000000000000000000000000815260040161058690610f30565b60405180910390fd5b8060028190555050565b6002600154036105de576040517f08c379a00000000000000000000000000000000000000000000000000000000081526004016105d590610cc7565b60405180910390fd5b600260018190555060008111610629576040517f08c379a000000000000000000000000000000000000000000000000000000000815260040161062090610f9c565b60405180910390fd5b7f000000000000000000000000000000000000000000000000000000000000000073ffffffffffffffffffffffffffffffffffffffff166323b872dd3330846040518463ffffffff1660e01b815260040161068693929190610fbc565b6020604051808303816000875af11580156106a5573d6000803e3d6000fd5b505050506040513d601f19601f820116820180604052508101906106c99190610e4b565b610708576040517f08c379a00000000000000000000000000000000000000000000000000000000081526004016106ff90610ec4565b60405180910390fd5b604051806040016040528082815260200142815250600460003373ffffffffffffffffffffffffffffffffffffffff1673ffffffffffffffffffffffffffffffffffffffff168152602001908152602001600020600082015181600001556020820151816001015590505080600360008282546107859190610d82565b925050819055503373ffffffffffffffffffffffffffffffffffffffff167f9e71bc8eea02a63969f509818f2dafb9254532904319f9dbda79b67bd34a5f3d826040516107d29190610b52565b60405180910390a26001808190555050565b600080600460008473ffffffffffffffffffffffffffffffffffffffff1673ffffffffffffffffffffffffffffffffffffffff168152602001908152602001600020604051806040016040529081600082015481526020016001820154815250509050600081600001510361085d5760009150506108a2565b600081602001514261086f9190610db6565b905063bbf81e008160025484600001516108899190610ff3565b6108939190610ff3565b61089d9190611064565b925050505b919050565b6108af61092d565b600073ffffffffffffffffffffffffffffffffffffffff168173ffffffffffffffffffffffffffffffffffffffff16036109215760006040517f1e4fbdf70000000000000000000000000000000000000000000000000000000081526004016109189190610b7c565b60405180910390fd5b61092a816109b4565b50565b610935610a78565b73ffffffffffffffffffffffffffffffffffffffff166109536104f6565b73ffffffffffffffffffffffffffffffffffffffff16146109b257610976610a78565b6040517f118cdaa70000000000000000000000000000000000000000000000000000000081526004016109a99190610b7c565b60405180910390fd5b565b60008060009054906101000a900473ffffffffffffffffffffffffffffffffffffffff169050816000806101000a81548173ffffffffffffffffffffffffffffffffffffffff021916908373ffffffffffffffffffffffffffffffffffffffff1602179055508173ffffffffffffffffffffffffffffffffffffffff168173ffffffffffffffffffffffffffffffffffffffff167f8be0079c531659141344cd1fd0a4f28419497f9722a3daafe3b4186f6b6457e060405160405180910390a35050565b600033905090565b600080fd5b600073ffffffffffffffffffffffffffffffffffffffff82169050919050565b6000610ab082610a85565b9050919050565b610ac081610aa5565b8114610acb57600080fd5b50565b600081359050610add81610ab7565b92915050565b600060208284031215610af957610af8610a80565b5b6000610b0784828501610ace565b91505092915050565b6000819050919050565b610b2381610b10565b82525050565b6000604082019050610b3e6000830185610b1a565b610b4b6020830184610b1a565b9392505050565b6000602082019050610b676000830184610b1a565b92915050565b610b7681610aa5565b82525050565b6000602082019050610b916000830184610b6d565b92915050565b6000819050919050565b6000610bbc610bb7610bb284610a85565b610b97565b610a85565b9050919050565b6000610bce82610ba1565b9050919050565b6000610be082610bc3565b9050919050565b610bf081610bd5565b82525050565b6000602082019050610c0b6000830184610be7565b92915050565b610c1a81610b10565b8114610c2557600080fd5b50565b600081359050610c3781610c11565b92915050565b600060208284031215610c5357610c52610a80565b5b6000610c6184828501610c28565b91505092915050565b600082825260208201905092915050565b7f5265656e7472616e637947756172643a207265656e7472616e742063616c6c00600082015250565b6000610cb1601f83610c6a565b9150610cbc82610c7b565b602082019050919050565b60006020820190508181036000830152610ce081610ca4565b9050919050565b7f4e6f207374616b6520746f207769746864726177000000000000000000000000600082015250565b6000610d1d601483610c6a565b9150610d2882610ce7565b602082019050919050565b60006020820190508181036000830152610d4c81610d10565b9050919050565b7f4e487b7100000000000000000000000000000000000000000000000000000000600052601160045260246000fd5b6000610d8d82610b10565b9150610d9883610b10565b9250828201905080821115610db057610daf610d53565b5b92915050565b6000610dc182610b10565b9150610dcc83610b10565b9250828203905081811115610de457610de3610d53565b5b92915050565b6000604082019050610dff6000830185610b6d565b610e0c6020830184610b1a565b9392505050565b60008115159050919050565b610e2881610e13565b8114610e3357600080fd5b50565b600081519050610e4581610e1f565b92915050565b600060208284031215610e6157610e60610a80565b5b6000610e6f84828501610e36565b91505092915050565b7f5472616e73666572206661696c65640000000000000000000000000000000000600082015250565b6000610eae600f83610c6a565b9150610eb982610e78565b602082019050919050565b60006020820190508181036000830152610edd81610ea1565b9050919050565b7f5261746520746f6f206869676800000000000000000000000000000000000000600082015250565b6000610f1a600d83610c6a565b9150610f2582610ee4565b602082019050919050565b60006020820190508181036000830152610f4981610f0d565b9050919050565b7f416d6f756e74206d7573742062652067726561746572207468616e2030000000600082015250565b6000610f86601d83610c6a565b9150610f9182610f50565b602082019050919050565b60006020820190508181036000830152610fb581610f79565b9050919050565b6000606082019050610fd16000830186610b6d565b610fde6020830185610b6d565b610feb6040830184610b1a565b949350505050565b6000610ffe82610b10565b915061100983610b10565b925082820261101781610b10565b9150828204841483151761102e5761102d610d53565b5b5092915050565b7f4e487b7100000000000000000000000000000000000000000000000000000000600052601260045260246000fd5b600061106f82610b10565b915061107a83610b10565b92508261108a57611089611035565b5b82820490509291505056fea2646970667358221220c27b8074f40e3f9a8c03871414c23e48a0872941d040895fd9762a6748ad7d8664736f6c63430008140033",
  "linkReferences": {},
  "deployedLinkReferences": {}
}